:040000000200563272
:01000B0032C2
:0100130032BA
:01001B0032B2
:0100230032AA
:03002B000202C806
:03003300020DF4C7
:01003B003292
:03004300020DFBB0
:03004B0002111E81
:03005300020E900A
:0700AF0075080075090075DA
:0600B6000A00750B007545
:0200BC000D0035
:0300DF000200E23A
:0500E2001200FC80FE8D
:0500E700C200C201C2CD
:0400EC0002C203C287
:0400F00004C205C27F
:0400F40006C207C277
:0400F80008C209220F
:0D00FC007A007B007C00C002C003C004122B
:0E01090000E7D004D003D00290E600E0FD44F1
:0E01170010F0000000000000000090E618E468
:0E012500F0000000000000000090E619E4F079
:0E013300000000000000000090E61AE4F0005A
:0E0141000000000000000090E61BE4F000004B
:0E014F0000000000000090E6017403F00000C4
:0E015D0000000000000090E670E4F0000000DA
:0E016B00000000000075B288000000000000D7
:0E01790000007580000000000000000000750E
:0E018700B5AF000000000000000075B00000E1
:0E01950000000000000000538EDF75CA5F7589
:0E01A300CBF075C80443A82090E6827404F0E7
:0E01B100D2E843D820C002C003C004120EC220
:0E01BF00D004D003D00290E668E0FD4402F0C8
:0E01CD000000000000000000D2EA0000000068
:0E01DB000000000090E65C7413F000000000CD
:0E01E9000000000090E65EE0FD4402F0000021
:0E01F700000000000000D2AF00000000000079
:0E0205000000538EF8C002C003C00412033C78
:0E021300D004D003D002000000000000000064
:0A022100E509B401577509008C05CA
:0C022B000CBD01167C00E516B4010FC0EC
:0E02370002C003C0041204F7D004D003D002AA
:090245008A058B060ABA00010BC0
:0C024E00BDE80ABE0307430B017A007BE9
:01025A0000A3
:0C025B00E50B30E01D90000D75F040C078
:0E02670002C003C00412109DAD82D004D0036B
:08027500D002BD0103530BFE92
:0A027D00E50860A0E50830E0185322
:0C028700A87F5308FE43A880C002C003FB
:0B029300C004120563D004D003D002A9
:0A029E00E50830E10953A87F53087A
:0402A800FD43A880EA
:0802AC00E50820E20302022133
:0C02B40053A87F5308FB43A88000000003
:0802C000000000000002022111
:0702C80075090153C87F32E4
:0700BE00750E00750F0075BF
:0600C50010007511017529
:0600CB0012007513007520
:0200D100160017
:0A02CF0090E6BAE0F51475820122F2
:0C02D90090E740E514F090E68AE4F09015
:0902E500E68B7401F07582012220
:0A02EE0090E6BAE0F51575820122D2
:0C02F80090E740E515F090E68AE4F090F5
:09030400E68B7401F07582012200
:0C030D0090E50DE0FA30E4047582002257
:0403190075820122C6
:04031D00AA82AB8382
:090321008A048B051ABAFF011BC6
:0E032A00EC4D600DC002C003121626D003D0A9
:030338000280E65A
:01033B00229F
:0E033C0090E680E0FA440AF09005DC12031D02
:0E034A0090E65D74FFF05391EF90E680E0FACC
:0403580054F7F02244
:06035C00AA827B787C3EC2
:0E0362008B828C83A3E0FDBD03278A051AED74
:0703700070058B828C8322D3
:0E037700C0028B058C068B828C83E0FF7A001F
:0E038500EF2DFDEA3EFE8D038E04D00280CFE8
:0403930090000022B4
:0E03970090E60B7403F0000000000000000070
:0E03A50090E61274D2F000000000000000008C
:0E03B30090E61374A0F00000000000000000AF
:0E03C10090E6147492F00000000000000000AE
:0E03CF0090E61574D0F0000000000000000061
:0E03DD0090E619E0FA54EFF000000000000076
:0E03EB00000090E61AE0FA54EFF00000000067
:0E03F9000000000090E6047480F00000000098
:0E0407000000000090E6047404F00000000005
:0E0415000000000090E6047406F000000000F5
:0E0423000000000090E6047402F000000000EB
:0E0431000000000090E6047408F000000000D7
:0E043F000000000090E604E4F0000000000061
:0E044D0000000090E6187404F00000000000AB
:0E045B0000000090E61B7404F000000000009A
:0E04690000000090E6497484F00000000000DE
:0E04770000000090E6497484F00000000000D0
:0E04850000000090E6497486F00000000000C0
:0E04930000000090E6497486F00000000000B2
:0E04A10000000090E6197410F000000000004A
:0E04AF0000000090E61A7410F000000000003B
:0E04BD0000000090E6207402F0000000000035
:0E04CB0000000090E621E4F0000000000000B8
:0E04D900000090E6267402F000000000000013
:0E04E700000090E627E4F00000000000000096
:0204F5000022E3
:0E04F700E4C0E0E4C0E07408C0E07582C0120A
:0E05050012EF15811581158100000090FC0099
:0B0513007408F00090FC01E4F07A0294
:03051E00BA080018
:0C0521005014008A037CFCEA2430F886A9
:0A052D00058B828C83EDF00A80E755
:0E0537000000000000000000000000000000B6
:0E054500000090E69CE4F000000000000000C2
:0E05530000000000000000000090E69D74080B
:02056100F02286
:0B05630090E6B9E0FABA00030206D9E6
:06056E00BA010302077B45
:06057400BA030302083681
:05057A00BA06028075C5
:06057F00BA08030206D3D6
:06058500BA09030206CDD5
:06058B00BA0A030206C1DA
:06059100BA0B030206C7CD
:06059700BAB103020A2BB9
:06059D00BAB3030208DE00
:0605A300BABB03020DAF1C
:0605A900BAC003020D6858
:0605AF00BAC103020AF5C7
:0605B500BAC203020C4271
:0605BB00BAC3030208D2DE
:0605C100BAC4030208D8D1
:0605C700BAC503020A6739
:0605CD00BAC603020B2375
:0605D300BAC703020AEAA8
:0605D900BAC803020C3752
:0605DF00BAC903020C97EB
:0605E500BACA03020CF982
:0605EB00BACB03020D4231
:0305F100020DC731
:0A05F40090E6BBE0FABA010280179E
:0505FE00BA020280506A
:05060300BA030280793A
:05060800BA0602801F8C
:05060D00BA070280584D
:030612000206B627
:0A0615007A007B3E90E6B3EBF07A2A
:0A061F00007B3E7B0090E6B4EAF099
:03062900020DCFF0
:08062C00740DFA60177A127BCD
:090634003E90E6B3EBF07A127B74
:0B063D003E7B0090E6B4EAF0020DCF17
:0B06480090E6A0E0FA4401F0020DCFA4
:0A0653007A1C7B3E90E6B3EBF07AD0
:0A065D001C7B3E7B0090E6B4EAF03F
:03066700020DCFB2
:0A066A007A4A7B3E90E6B3EBF07A8B
:0A0674004A7B3E7B0090E6B4EAF0FA
:03067E00020DCF9B
:0E06810090E6BAE0FAF58212035CAA82AB831F
:0E068F007C008A058B068C07EA4B4C600F90AE
:0E069D00E6B3EEF07E0090E6B4EDF0020DCF75
:0B06AB0090E6A0E0FA4401F0020DCF41
:0B06B60090E6A0E0FA4401F0020DCF36
:0606C1001202F8020DCF49
:0606C7001202EE020DCF4D
:0606CD001202CF020DCF66
:0606D3001202D9020DCF56
:0A06D90090E6B8E0FABA8002800D46
:0506E300BA8102802C29
:0506E800BA8202803D12
:0306ED0002077091
:0606F000E5132513FA904A
:0D06F6001670E493FB420290E740EAF0909A
:0E070300E741E4F090E68AF090E68B7402F095
:03071100020DCF07
:0E07140090E740E4F090E741F090E68AF09024
:08072200E68B7402F0020DCF1A
:0E072A0090E6BCE0FA53027E90E6BCE0FBC312
:0E07380074809BE433FB4A90167193FA33955C
:0E074600E0FB74A12AFA74E63BFB8A828B83E7
:0E075400E0FA53020190E740EAF090E741E43A
:0E076200F090E68AF090E68B7402F0020DCF64
:0B07700090E6A0E0FA4401F0020DCF7B
:0C077B0090E6B8E0FA6008BA0202801CA8
:03078700020DCF91
:0C078A0090E6BAE0FABA0106751300020E
:020796000DCF85
:0B07980090E6A0E0FA4401F0020DCF53
:0907A30090E6BAE0600302082BA5
:0E07AC0090E6BCE0FA53027E90E6BCE0FBC390
:0E07BA0074809BE433FB4A90167193FA3395DA
:0E07C800E0FB74A12AFA74E63BFB90E6BCE06D
:0E07D600FC53047E90E6BCE0FDC374809DE4FD
:0E07E40033FD4C90167193FC3395E0FD74A12B
:0E07F2002CFC74E63DFD8C828D83E0FC5304EC
:0E080000FE8A828B83ECF090E6BCE05480FA16
:0E080E00C423541FFA90E6BCE0FB740F5B900D
:0D081C00E6832AF090E683E0FA4420F00223
:020829000DCFF1
:0B082B0090E6A0E0FA4401F0020DCFBF
:0C08360090E6B8E0FA6008BA02028027E1
:030842000208C7E2
:0C08450090E6BAE0FABA01067513010251
:020851000DCFC9
:0B08530090E6BAE0FABA0203020DCFF3
:0B085E0090E6A0E0FA4401F0020DCF8C
:0E08690090E6BCE0FA53027E90E6BCE0FBC3D2
:0E08770074809BE433FB4A90167193FA33951C
:0E088500E0FB74A12AFA74E63BFB90E6BCE0AF
:0E089300FC53047E90E6BCE0FDC374809DE43F
:0E08A10033FD4C90167193FC3395E0FD74A16D
:0E08AF002CFC74E63DFD8C828D83E0FC43043E
:0A08BD00018A828B83ECF0020DCF5C
:0B08C70090E6A0E0FA4401F0020DCF23
:0608D200751601020DCFB6
:0608D800751600020DCFB1
:0708DE0075170F7518047473
:0A08E50018C0E07400C0E07440C0C9
:0D08EF00E0740FC0E07401C0E07582C0121B
:0C08FC00128DE58124FBF5817530007A37
:0109080000EE
:0B090900E53020E1258A030ABB6400F2
:0E091400501DC002E4C0E0740FC0E07401C0CA
:0E092200E07582C01212EF158115811581D08B
:030930000280D66C
:06093300E4F517F518744D
:0A09390018C0E07400C0E07440C074
:0E094300E0E4C0E07401C0E075824012128D45
:0A095100E58124FBF58175170F7591
:07095B0018087418C0E074D5
:0C09620000C0E07440C0E0740FC0E074FE
:0E096E0001C0E07582C012128DE58124FBF5F8
:07097C0081007530007A00D4
:0B098300E53020E0258A030ABB640079
:0E098E00501DC002E4C0E0740FC0E07401C050
:0E099C00E07582C01212EF158115811581D011
:0309AA000280D6F2
:0509AD007530007A0026
:0B09B200E53020E1258A030ABB640049
:0E09BD00501DC002E4C0E0740FC0E07401C021
:0E09CB00E07582C01212EF158115811581D0E2
:0309D9000280D6C3
:0709DC00751720751819744E
:0A09E30018C0E07400C0E07440C0CA
:0D09ED00E07420C0E07401C0E0758240128B
:0C09FA00128DE58124FBF58175170F7547
:070A060018087418C0E07429
:0C0A0D0000C0E07440C0E0740FC0E07452
:0E0A190001C0E07582C012128DE58124FBF54C
:040A270081020DCF6C
:0E0A2B0043B0A000000000000000000000002A
:0E0A3900000000000012039700000000000003
:0E0A47000000000000000000000053B0DF00BF
:0E0A5500000000000000000000000000000093
:040A630000020DCFB1
:0C0A670090E6BAE0F51790E6BCE0FA8AD1
:060A7300187530007A0046
:0B0A7900E53020E1258A030ABB640081
:0E0A8400501DC002E4C0E0740FC0E07401C059
:0E0A9200E07582C01212EF158115811581D01A
:030AA0000280D6FB
:0A0AA3007418C0E07400C0E0744055
:0C0AAD00C0E0C0177401C0E07582401268
:0C0AB900128DE58124FBF58175170F7587
:070AC50018087418C0E0746A
:0C0ACC0000C0E07440C0E0740FC0E07493
:0E0AD80001C0E07582C012128DE58124FBF58D
:040AE60081020DCFAD
:0B0AEA0090E6A0E0FA4401F0020DCFFE
:0C0AF50090E6BAE0F51790E6BCE0FA8A43
:060B0100187418C0E07436
:0A0B070000C0E07440C0E0C01774A5
:0E0B110001C0E07582C012128DE58124FBF553
:040B1F0081020DCF73
:070B230075170F751804742B
:0A0B2A0018C0E07400C0E07440C081
:0D0B3400E0740FC0E07401C0E07582C012D3
:0C0B4100128DE58124FBF5817530007AEF
:010B4D0000A7
:0B0B4E00E53020E1258A030ABB6400AB
:0E0B5900501DC002E4C0E0740FC0E07401C083
:0E0B6700E07582C01212EF158115811581D044
:030B75000280D625
:060B7800E4F517F5187406
:0A0B7E0018C0E07400C0E07440C02D
:0E0B8800E0E4C0E07401C0E075824012128DFE
:0A0B9600E58124FBF58175170F754A
:070BA00018087418C0E0748E
:0C0BA70000C0E07440C0E0740FC0E074B7
:0E0BB30001C0E07582C012128DE58124FBF5B1
:060BC100817530007A008E
:0B0BC700E53020E0258A030ABB640033
:0E0BD200501DC002E4C0E0740FC0E07401C00A
:0E0BE000E07582C01212EF158115811581D0CB
:030BEE000280D6AC
:0E0BF100E4C0E0E4C0E07440C0E07582401251
:0C0BFF0012EF15811581158100007A00AD
:030C0B00BA4000EC
:0D0C0E00501800EA2440FBE434E7FCEA241F
:0C0C1B0030F886058B828C83EDF00A8097
:010C2700E3E9
:0D0C28000090E68AE4F090E68B7440F00244
:020C35000DCFE1
:0B0C370090E6A0E0FA4401F0020DCFAF
:0E0C4200E4C0E0E4C0E07420C0E07582C0129F
:0C0C500012EF15811581158100007A005B
:030C5C00BA2000BB
:0D0C5F00502700EA2440FBE434E7FCEA24BF
:0C0C6C0030F886058B828C83EDF000745C
:0E0C7800202A2440F582E434E7F583E4F00AF4
:020C860080D418
:0D0C88000090E68AE4F090E68B7440F002E4
:020C95000DCF81
:0B0C970090E6BBE0F51990E6BAE0F52E
:080CA2001A90E6BCE0F51B53BB
:0C0CAA001B0790E68AE4F090E68B744093
:0E0CB600F090E601E4F00000000000000000F5
:0E0CC40075B2590000000000000000758009A4
:0C0CD20000000000000000007A007B0021
:070CDE00E512700EBB64007B
:0B0CE50050098A040ABCFFF10B80EEEE
:070CF000751200121442020C
:020CF7000DCF1F
:0B0CF90090E6BBE0F51990E6BAE0F5CC
:080D04001A90E6BCE0F51B5358
:0C0D0C001B0790E601E4F000000000006E
:0E0D180000000075B25900000000000000004D
:0E0D2600758009000000000000000012153E5C
:0E0D340090E68AE4F090E68B7440F0020DCF5A
:0E0D420090E6017403F00000000000000000C5
:0E0D500075B2880000000000000000758000F1
:0A0D5E0000000000000000008067A4
:0C0D680090E740E50DF00090E7417402B8
:0D0D7400F000900002E0FA90E742F00090DD
:0E0D81000001E0FA90E743F00090E744E4F050
:0E0D8F000090E745E4F00090E746E4F00090A5
:0E0D9D00E747E4F00090E68AE4F090E68B74FD
:040DAB0008F08020AC
:0C0DAF0075160053B07F0000000000002B
:0C0DBB00000000000000000000008008A4
:080DC70090E6A0E0FA4401F0FF
:090DCF0090E6A0E0FA4480F02255
:050DD800E5116001229D
:0E0DDD005380F700000000000000000000003E
:090DEB0000000000004387012212
:070DF40053D8EF7511013225
:0E0DFB00C0E0C082C083C0025391EF90E65D5D
:0A0E0900E0FA30E00C430801751216
:070E13000090E65D7401F0A0
:0D0E1A0090E65DE0FA30E13290E684E0F50C
:0A0E27000E90E685E0F50FC28C7511
:0E0E31008A00758C00D28C4380800000000087
:0E0E3F000000000053807F0000000000000053
:070E4D000090E65D7402F065
:0E0E540090E65DE0FA30E40690E65D7410F082
:0C0E620090E65DE0FA30E30C43080275F6
:080E6E00110090E65D7408F02C
:0C0E760090E65FE0FA30E109751201908F
:050E8200E65F7402F0C0
:090E8700D002D083D082D0E03209
:0E0E9000C0E0C082C083C0025391BF90E65103
:0C0E9E00E0FA30E01643080490E650E44F
:0E0EAA00F0000000000000000090E65174010E
:010EB800F049
:090EB900D002D083D082D0E032D7
:011670000079
:0A1671000001020203030404050552
:011683000165
:011684000263
:0700D300752900752A007574
:0500DA002B00752C0055
:070EC200752700752800757B
:0C0EC9002900D2E990E67AE0FA4402F039
:010ED50022FA
:080ED600C01C85811CAA82E505
:080EDE00276005758200802FDA
:080EE600A81C1818188622E56B
:080EEE001C24FAF88623088693
:050EF6002408862575AB
:060EFB00260075270375B7
:0C0F0100280090E678E0FB4480F0EA2A2B
:080F0D00FA90E679F07582010B
:030F1500D01C22CB
:080F1800C01C85811CAA82E5C2
:080F2000276005758200803294
:080F2800A81C1818188622E528
:080F30001C24FAF88623088650
:050F3800240886257568
:060F3D0026007527017576
:0C0F4300280090E678E0FB4480F0EA2AE9
:0B0F4F00FA90E67974012AF075820127
:030F5A00D01C2286
:0A0F5D00E527700BE5287003F5820C
:010F67002267
:040F6800758201226B
:040F6C007582022266
:080F7000C01C85811CAA82E56A
:0A0F78002A6012E52AB40102804746
:080F8200E52AB40203020FFA94
:030F8A000210361C
:0B0F8D00E529B401067582000210394E
:0C0F9800E51C24FBF8E6C0E008E6C0E021
:0E0FA40008E6C0E0C002758251120ED6AA8285
:0E0FB200E58124FCF581EA7005F58202103914
:070FC000752901752A0102E9
:020FC7001036E2
:0D0FC900120F5DAA82BA02057582008063D6
:0C0FD600E51C24FBF8E6C0E008E6C0E0E3
:0E0FE20008E6C0E0E4C0E0758251120ED6E5CC
:0A0FF0008124FCF581752A02803C83
:0D0FFA00120F5DAA82BA02057582008032D6
:0A100700120F5DE5827009F52AF56D
:0610110029758201802216
:0C101700E51C24FBF8E6C0E008E6C0E0A1
:0E10230008E6C0E0E4C0E0758251120ED6E58A
:051031008124FCF581A3
:03103600758200C0
:03103900D01C22A6
:08103C00C01C85811CAA82E59D
:0A1044002B6007E52BB4014B803947
:0A104E00E529B40105758200804217
:0C105800E51C24FBF8E6C0E008E6C0E060
:0E10640008E6C0E0C002758251120F18AA8281
:0D107200E58124FCF581EA7004F582801B05
:08107F00752901752B01801099
:0A108700120F5DE5827009F52BF5EC
:06109100297582018003B5
:031097007582005F
:03109A00D01C2245
:0B109D00AA82AB83ACF0E52C600AE5F2
:0610A8002CB401028038A7
:0310AE0002111A12
:0910B100E529B401047582002256
:0A10BA00742DC0E07400C0E0744023
:0E10C400C0E07401C0E0758248120F18AD82C2
:0C10D200E58124FCF581ED7003F582221D
:0810DE00752901752C01803415
:0E10E600C002C003C004120F5DAD82D004D062
:0C10F40003D0028D06BD020475820022AC
:0A110000752C00752900BE01028065
:01110A000BD9
:0B110B008A828B838CF0E52D121637D2
:0411160075820122BB
:04111A0075820022B8
:0E111E00C0E0C0F0C082C083C002C003C004A5
:0C112C00C005C0D075D0005391DFAA2789
:0E113800BA041190E678E0FB30E603021236AE
:06114600752700021236BD
:0C114C0090E678E0FB30E20975270075A2
:0511580028010212361F
:0D115D0090E678E0FB20E119BA0302800360
:03116A00BA0111B6
:0A116D0075280275270490E678E06B
:07117700FB4440F0021236B8
:05117E00BA0102800E21
:05118300BA02028035F4
:06118800BA03030211FF8F
:03118E0002123614
:09119100752702E522B401089063
:07119A00E678E0FA4420F0C2
:0711A100E5262523FAE435E1
:0A11A80024FBAC2590E679E0FD8AF7
:0B11B200828B838CF01216370212367D
:0C11BD00AA22BA020890E678E0FB442069
:0111C900F035
:0A11CA00EA14F522BA010B752704A0
:0811D40090E678E0FA4440F0D7
:0511DC00AA23AB24ACC6
:0711E10025AD2674012DF578
:0C11E80026ED2AFAE43BFB90E679E0FDDE
:0B11F4008A828B838CF0121637803744
:0A11FF00E522FA14F522EA700D75DE
:0C120900270490E678E0FA4440F08021D1
:05121500AA23AB24AC8C
:07121A0025AD2674012DF53E
:0C12210026ED2AFAE43BFB8A828B838CCA
:09122D00F0121650FA90E679F077
:0E123600D0D0D005D004D003D002D083D08217
:05124400D0F0D0E03203
:04124900AA827B00FA
:03124D00BB0800DB
:0E125000501AEB90167B93FC5A600543B008D1
:02125E0080030B
:0312600053B0F791
:0912630043B00153B0FE0B80E121
:01126C00225F
:04126D007A007B0088
:03127100BB0800B7
:0E127400501243B001EA2AFAE5B030E4010A54
:0612820053B0FE0B80E9F1
:05128800008A2F002286
:08128D00C01C85811CAA82A887
:0A1295001C181818748046FBE51CB5
:0E129F0024FCF8E6420243B002008B82C0023B
:0C12AD00121249D0028A821212497A0003
:0B12B900A81C181818C3EA965025E581
:0C12C4001C24F9F8EA26FBE40836FC08BC
:0E12D00086058B828C838DF0121650FBF58202
:0A12DE00C002121249D0020A80D1AA
:0712E80053B0FD00D01C22F1
:0812EF00C01C85811CAA82A825
:0A12F7001C18181886038B04E51C70
:0E13010024FCF8E6420243B002008C82C002D7
:0E130F00C003121249D003D0028A82C003121A
:0E131D001249D00353B0FD000043B00400435A
:0A132B00B0010053B0FE00007A008C
:0E133500C3EA9B5014C002C00312126DD00315
:0A134300D002EA2430F8A62F0A8039
:01134D00E7B8
:07134E0053B0FB00D01C228C
:0C135500009000007401F07400C0E0740F
:0C13610000C0E0E4C0E0E4C0E07401C0A3
:0E136D00E07582C012128DE58124FBF581002F
:01137B00224F
:0B137C0000900000E4F07400C0E0747A
:0C13870000C0E0E4C0E0E4C0E07401C07D
:0E139300E07582C012128DE58124FBF5810009
:0113A1002229
:0C13A200009000007408F07400C0E074BB
:0C13AE0000C0E0E4C0E07401C0E0740185
:0E13BA00C0E07582C012128DE58124FBF58122
:0213C800002201
:0C13CA00009000007480F07400C0E0741B
:0C13D60000C0E0E4C0E07401C0E074015D
:0E13E200C0E07582C012128DE58124FBF581FA
:0213F0000022D9
:0C13F200009000007404F07400C0E0746F
:0C13FE0000C0E0E4C0E07401C0E0740135
:0E140A00C0E07582C012128DE58124FBF581D1
:021418000022B0
:0C141A00009000007440F07400C0E0740A
:0C14260000C0E0E4C0E07401C0E074010C
:0E143200C0E07582C012128DE58124FBF581A9
:02144000002288
:08167B00804020100804020168
:0E1442005380EF00000000000000005380FE09
:0E14500000000000000000007582841215C329
:0C145E007582001215C3E51B0303543F08
:0C146A00F5821215C3E51B030354C0F506
:0C147600821215C3E51BB404047A088040
:011482000267
:021483007A40AD
:021485007B00EA
:0E148700C3EB9A501CEB2440F582E434E7F5E9
:0E14950083E0FCF582C002C0031215C3D00331
:0514A300D0020B80DF08
:0C14A8004380010000000000000000E58F
:0614B4001BB404028001DC
:0114BA00220F
:0E14BB005380FE0000000000000000758283D8
:0614C9001215C3E5192510
:0A14CF0019FAE51A235401FB4AF54F
:0714D900821215C3E51A257C
:0A14E0001AF5821215C3758200127E
:0E14EA0015C300000000000000004380010058
:0E14F800000000000000005380FE0000000015
:0E150600000000007582D71215C37A007B002A
:0E151400C002C0031215F5E582D003D00220FC
:05152200E70EBB6400B0
:0B15270050098A040ABCFFE50B80E2BB
:0C153200438001000000000000000022C7
:0E153E005380EF00000000000000005380FE0C
:0E154C00000000000000000075820B1215C3A5
:06155A00E5192519FAE570
:0C1560001A235401FB4AF5821215C3E562
:05156C001A251AFAE542
:0C1571001B0303543FFB4AF5821215C314
:0C157D00E51B030354C0F5821215C37572
:0715890082001215C37A0075
:03159000BA40005E
:0E1593005022EA2440FBE434E7FCC002C0030F
:0E15A100C0041215F5AD82D004D003D0028B29
:0815AF00828C83EDF00A80D963
:0C15B70043800100000000000000002242
:0415C300AA827B007D
:0315C700BB08005E
:0B15CA005028EA30E705438040800312
:0315D5005380BF81
:0E15D800EA2AFA438010000000000000000024
:0E15E6005380EF00000000000000000B80D3D7
:0115F40022D4
:0415F5007A007B00FD
:0315F900BB08002C
:0E15FC005025EA2AFAE580FC30E5034302019F
:0E160A0043801000000000000000005380EF3D
:0B16180000000000000000000B80D666
:031623008A822296
:0E3E0000120100020000004039210201010001
:043E0E0001020001AC
:0A3E12000A06000200000040010053
:0E3E1C0009022E00010100803209040000049A
:0E3E2A00FF00000007058201000201070504E9
:0E3E38000200020107050601000201070588CD
:043E46000100020174
:0E3E4A0009022E00010100803209040000046C
:0E3E5800FF00000007058201000201070504BB
:0E3E660002000201070506010002010705889F
:043E74000200020145
:043E78000403090432
:0E3E7C00140365006900670065006E006C00AD
:063E8A00610062007300FC
:0E3E900018034200610073006500200053001B
:0A3E9E0074006E002D004D004D0071
:023EA800000018
:091626007400F58690FED37C05EA
:08162F00A3E582458370F92256
:06008500E478FFF6D8FD4F
:080063007902E94400601B7AF8
:05006B000190168378EE
:030070000175A077
:0A00730000E493F2A308B8000205B0
:08007D00A0D9F4DAF275A0FF2E
:0E16370020F71030F6118883A88220F507F600
:05164500A8837583007D
:01164A00227D
:03164B00F280F733
:02164E00F02288
:08008B007800E84400600A79E6
:030093000075A055
:0600960000E4F309D8FCB0
:08009C007801E84400600C79D2
:0B00A40001900000E4F0A3D8FCD9FAA2
:0300560075816F42
:0A00590012166CE58260030200E25B
:0E16500020F71430F6148883A88220F507E6F0
:06165E00A8837583002241
:03166400E280F72A
:03166700E49322E7
:02166A00E0227C
:04166C007582002261
:00000001FF
