:040000000200563272
:01000B0032C2
:0100130032BA
:01001B0032B2
:0100230032AA
:03002B0002078C3D
:03003300020E6D4D
:01003B003292
:03004300020EB2F8
:03004B000212E5B9
:03005300020FC2D7
:0700AF0075080075090075DA
:0500B6000A00750D00B9
:0300F2000200F514
:0500F5001200FA80FE7C
:0A00FA00C068E581F5682430F58147
:0C010400E568242DF8E4F608F690E6000B
:0E011000E0FC54E7F0000090E60174EBF00014
:0E011E000012101290E670E4F0000075B208B6
:0E012C000000758000000075B5FF000075B082
:0E013A00000000538EDF75CA1775CBFC75C828
:0E0148000443A82090E6827404F0D2E843D865
:0E0156002012108990E668E0FC4402F00000E0
:0D016400D2EA000090E65C741BF0000090F1
:0E017100E65EE0FC4402F00000D2AF00005356
:0A017F008EF8A868087600A868084A
:0C018900087601E4FEFFE5682406F8E4B7
:0C019500F608F67C01E568242AF87601E3
:0A01A100E568242BF87600E56824D9
:0A01AB002CF87600E5682408F8A996
:0601B5006809090977004A
:0501BB00BC01028003FD
:0301C000020452E4
:0B01C300E568242AF9B70144C007A931
:0A01CE0068090909C000E568242F44
:0D01D800F8E775F020A4F608A6F0D000E5C9
:0C01E50068242F04F98707A6077401287E
:0C01F100F9C000E568242FF88607D00054
:0A01FD00A707E568242AF97700E55A
:0802070068242BF97701D007F0
:0A020F00E568242BF9B70102800313
:030219000202C618
:0E021C00C00788077D007A40C004C006C007F6
:0E022A00C000C007C005C00275820212113765
:0E023800AA82158115811581D000D007D0064D
:07024600D004E4BA01010439
:0C024D00D0076019E568242BF97700E564
:0A02590068242CF97701E5682406FB
:07026300F9E4F709F7805CE4
:0B026A00E5682406F98702098705E516
:0C027500682406F9740127F7E40937F744
:0C028100C374E89A74039D503C7C00E5B7
:0C028D0068242FF9E4F709F77A007D00DF
:0C02990074EE2D401EEA2527F582ED359D
:0B02A50028F58374E2F00ABA00010D96
:0C02B000E568242FF9A70209A70580DDEE
:0A02BC00E568242FF9A70209A70541
:0A02C600E568242CF9B7010280035B
:0302D0000201BB6D
:0A02D300C007E568242FF9E725278E
:0C02DD00FA09E73528FD7F00C004C006C8
:0E02E900C007C000C002C005C0077582201209
:0E02F7001203AA82158115811581D000D0074F
:09030500D006D004E4BA010104A1
:07030E00D00770030203FA9F
:0A031500E568242CF97700E5682460
:0C031F002AF97701E5682406F9E4F709E3
:09032B00F7A968090909B790005F
:0B0334005009A968090909070201BB74
:07033F00E4FCF53DF53EE58D
:0C03460068242FF9E4F709F77A007D0025
:0C03520074EE2D402CC007EA2527F58230
:0A035E00ED3528F583E0FF7B002554
:050368003DF53DEB3501
:08036D003EF53E0ABA00010D45
:0C037500E568242FF9A70209A705D007AE
:0203810080CF2B
:0B038300E568242FF9A70209A70585F3
:0A038E00278274122528F583E0FA97
:0A039800AB3EB5032A74012527F5DA
:0A03A2008274123528F583E0FAABEF
:0A03AC003D7D00EAB503147402253C
:0A03B60027F58274123528F583E064
:0703C000FABA3A030201BB87
:0C03C700E568242FF9E4F709F77A007BC1
:0103D3000029
:0803D40074EE2B50030201BB83
:0A03DC00EA2527F582EB3528F583AA
:0803E60074E1F00ABA00010BFA
:0C03EE00E568242FF9A70209A70380DAB4
:0B03FA00E5682406F98702098703E587
:0C040500682406F9740127F7E40937F7B2
:0C041100C374E89A74039B40030201BB13
:0C041D007C00E568242FF9E4F709F77A69
:03042900007B0055
:08042C0074EE2B50030201BB2A
:0A043400EA2527F582EB3528F58351
:08043E0074E2F00ABA00010BA0
:0C044600E568242FF9A70209A70380DA5B
:0A045200A968090909E4F7F53DF572
:09045C003EE568242AF97701E568
:0C04650068242CF97700C006C007C00016
:090471001207F0D000D007D006FC
:09047A00E509B4014E750900E525
:0A04830068242DF98703098705E5B9
:0C048D0068242DF9740127F7E40937F703
:0C049900BBE80FBD030CE568242DF9E45E
:0604A500F709F7430A010C
:0C04AB00E50A30E01D90000D75F040C027
:0E04B70006C007C000121264AB82D000D0074E
:0804C500D006BB0103530AFE3F
:0704CD00E508700302071FA0
:0A04D400E50830E01853A87F530834
:0E04DE00FE43A880C006C007C000120926D049
:0504EC0000D007D0065E
:0A04F100E50830E11853A87F530816
:0E04FB00FD43A880C006C007C000120DCDD082
:0505090000D007D00640
:0A050E00E50830E21B53A87F5308F4
:0E051800FB43A880C006C007C00012084BD0ED
:0805260000D007D00675800823
:08052E00E50820E30302063A90
:0A053600E568242AF9B701028003EA
:030540000205DFD2
:0C054300C007A968090909E775F020A4A9
:0C054F00FBADF08B078D04E568242FF94C
:0C055B00A70709A704E568242F04F9870E
:0C05670004A604740128F9C000E5682413
:0C0573002FF88604D000A704D007E5682C
:07057F002404F9E4F709F779
:0C058600E5682404F9C3E7942009E79419
:0C05920000503CC007E5682404F987070E
:0C059E000F0FEF28F9C000E5682404F8F6
:0C05AA00E62BFF08E63DFAD000EF252705
:0B05B600F582EA3528F583E0FAF7E54E
:0C05C100682404F9740127F7E40937F7F7
:0405CD00D00780B51E
:0A05D100E568242AF97700E56824A4
:0405DB002CF977017F
:0C05DF00E568242CF9B7015388027B006A
:0E05EB007C40C006C007C000C002C003C004B0
:0E05F900758222121137AA8215811581158193
:0C060700D000D007D006BA012AE5682414
:0C0613002CF97700E568242AF97701A98A
:07061F0068090909B790000A
:0A0626005008A96809090907800AB5
:0A0630005308F7A9680909097700CB
:08063A00E50820E40302071F9C
:0A064200E568242AF9B7015DA968F4
:0C064C00090909C000E568242FF8E775D3
:0C065800F020A4F608A6F0D000E568240D
:0E0664002F04F98702A602740128F9C000E5F0
:0C06720068242FF88602D000A7027A004E
:02067E007B00FF
:0E068000C3EA9420EB940050108A040C0CEC9A
:0B068E0028F977FF0ABA00EA0B80E7AA
:0A069900E568242AF97700E56824DB
:0406A3002CF97701B6
:0C06A700E568242CF9B7017088027B0084
:0E06B3007C40C006C007C000C002C003C004E7
:0E06C100758222121137AA82158115811581CA
:0C06CF00D000D007D006BA0147E568242F
:0C06DB002CF97700E568242AF97701A9C2
:0706E70068090909B7900042
:0A06EE005008A968090909078027D0
:0A06F8005308EFA96809090977000B
:040702007A007B00FE
:0C07060074EE2B4014EA2527F582EB3539
:0C07120028F58374FFF00ABA00EA0B809F
:01071E00E7F3
:0E071F0053A87F8EB053B07F8FB053B07F00D1
:0C072D000000000000A96809B7050DA934
:0A07390068097700A9680909770133
:02074300800C28
:0A074500A9680907A9680909E7255A
:02074F00E0F7D1
:0A075100C000A86808E6240EF9D0E5
:0C075B000087028A07A96809097480273A
:0E076700FE75B0C053B07F43A88000000000B4
:0E077500000000000000000000000000000076
:0707830002047A856881D0B1
:02078A006822E3
:07078C0075090153C87F321B
:0700BB00752100752200759C
:0600C20023017524007506
:0300C80027007599
:0300CB002828756D
:0700CE002900752A00E4F58A
:0400D5003DF53E7542
:0200D9003F00E6
:0A07930090E6BAE0F5257582012218
:0C079D0090E740E525F090E68AE4F0903B
:0907A900E68B7401F07582012257
:0A07B20090E6BAE0F52675820122F8
:0C07BC0090E740E526F090E68AE4F0901B
:0907C800E68B7401F07582012238
:0407D100AA82AB83CA
:0907D5008A048B051ABAFF011B0E
:0E07DE00EC4D600DC002C003121666D003D0B1
:0307EC000280E6A2
:0107EF0022E7
:0E07F00090E680E0FA440AF09005DC1207D192
:0E07FE0090E65D74FFF05391EF90E680E0FA14
:04080C0054F7F0228B
:06081000AA827B2C7C3F54
:0E0816008B828C83A3E0FDBD03278A051AEDBB
:0708240070058B828C83221A
:0E082B00C0028B058C068B828C83E0FF7A0066
:0E083900EF2DFDEA3EFE8D038E04D00280CF2F
:0408470090000022FB
:0B084B005380F79000321207D17A00B2
:03085600BA1200D3
:0B0859005009EA242BF876000A80F218
:07086400752900E4F52AF5F7
:04086B003DF53EF524
:0C086F003F90E60B7403F0000090E612CE
:0E087B0074D0F0000090E613E0FA547FF00015
:0E0889000090E614E0FA547FF0000090E615AF
:0E089700E0FA547FF0000090E6047480F00058
:0E08A5000090E6047402F0000090E604740473
:0E08B300F0000090E6047406F0000090E604E9
:0D08C1007408F0000090E604E4F0000090E0
:0E08CE00E618740CF0000090E6207401F000B3
:0E08DC000090E6217480F0000090E63074C0B9
:0E08EA00F0000090E6317460F0000090E61916
:0E08F800E0FA54FEF0000090E61AE0FA54FE1A
:0E090600F0000090E61BE0FA54FEF0000090B6
:0E09140000321207D190E65174FFF090E650C9
:040922007405F02246
:0A092600C068858168058105819095
:0A093000E6B9E0FABA0003020A2A51
:06093A00BA0103020ACC21
:06094000BA0303020B875D
:05094600BA0602804525
:06094B00BA0803020A24B1
:06095100BA0903020A1EB0
:06095700BA0A03020A12B5
:06095D00BA0B03020A18A8
:06096300BAB003020C23F0
:06096900BAB103020C39D3
:06096F00BAB503020C6B97
:06097500BAB603020CBF3C
:06097B00BAB703020D29CA
:06098100BAB803020DAD3F
:06098700BAC003020C429D
:03098D00020DB7A1
:0A09900090E6BBE0FABA0102800A0B
:05099A00BA0202801CFE
:05099F00BA0365802E83
:0A09A4007A007B3F90E6B3EBF07A97
:0A09AE00007B3F7B0090E6B4EAF006
:0309B800020DBF6E
:0A09BB007A127B3F90E6B3EBF07A6E
:0A09C500127B3F7B0090E6B4EAF0DD
:0309CF00020DBF57
:0E09D20090E6BAE0FAF582120810AA82AB8312
:0E09E0007C008A058B068C07EA4B4C600F905A
:0E09EE00E6B3EEF07E0090E6B4EDF0020DBF31
:0B09FC0090E6A0E0FA4401F0020DBFFD
:0B0A070090E6A0E0FA4401F0020DBFF1
:060A12001207BC020DBF3B
:060A18001207B2020DBF3F
:060A1E00120793020DBF58
:060A240012079D020DBF48
:0A0A2A0090E6B8E0FABA8002800DF1
:050A3400BA8102802CD4
:050A3900BA8202803DBD
:030A3E00020AC1E8
:060A4100E5242524FA90D3
:0D0A470016B0E493FB420290E740EAF09005
:0E0A5400E741E4F090E68AF090E68B7402F041
:030A6200020DBFC3
:0E0A650090E740E4F090E741F090E68AF090D0
:080A7300E68B7402F0020DBFD6
:0E0A7B0090E6BCE0FA53027E90E6BCE0FBC3BE
:0E0A890074809BE433FB4A9016B193FA3395C8
:0E0A9700E0FB74A12AFA74E63BFB8A828B8393
:0E0AA500E0FA53020190E740EAF090E741E4E6
:0E0AB300F090E68AF090E68B7402F0020DBF20
:0B0AC10090E6A0E0FA4401F0020DBF37
:0C0ACC0090E6B8E0FA6008BA0202801C54
:030AD800020DBF4D
:0C0ADB0090E6BAE0FABA010675240002A9
:020AE7000DBF41
:0B0AE90090E6A0E0FA4401F0020DBF0F
:090AF40090E6BAE06003020B7CFD
:0E0AFD0090E6BCE0FA53027E90E6BCE0FBC33C
:0E0B0B0074809BE433FB4A9016B193FA339545
:0E0B1900E0FB74A12AFA74E63BFB90E6BCE018
:0E0B2700FC53047E90E6BCE0FDC374809DE4A8
:0E0B350033FD4C9016B193FC3395E0FD74A196
:0E0B43002CFC74E63DFD8C828D83E0FC530497
:0E0B5100FE8A828B83ECF090E6BCE05480FAC2
:0E0B5F00C423541FFA90E6BCE0FB740F5B90B9
:0D0B6D00E6832AF090E683E0FA4420F002CF
:020B7A000DBFAD
:0B0B7C0090E6A0E0FA4401F0020DBF7B
:0C0B870090E6B8E0FA6008BA020280278D
:030B9300020C1839
:0C0B960090E6BAE0FABA010675240102EC
:020BA2000DBF85
:0B0BA40090E6BAE0FABA0203020DBFAF
:0B0BAF0090E6A0E0FA4401F0020DBF48
:0E0BBA0090E6BCE0FA53027E90E6BCE0FBC37E
:0E0BC80074809BE433FB4A9016B193FA339588
:0E0BD600E0FB74A12AFA74E63BFB90E6BCE05B
:0E0BE400FC53047E90E6BCE0FDC374809DE4EB
:0E0BF20033FD4C9016B193FC3395E0FD74A1D9
:0E0C00002CFC74E63DFD8C828D83E0FC4304E9
:0A0C0E00018A828B83ECF0020DBF17
:0B0C180090E6A0E0FA4401F0020DBFDE
:0E0C230090E6BAE0FA90E6BCE0FBC0028B82DD
:080C31001210231581020DBF12
:090C390012084B758008020DBF82
:0C0C420090E740E50DF090E741E4F090F1
:0E0C4E00E742F090E743F090E744F090E7456E
:0D0C5C00E4F090E68AF090E68B7406F0025A
:020C69000DBFBD
:080C6B0090E6BCE0FABA1200A9
:0A0C7300503F90E6BAE0FABA040020
:0C0C7D00503590E6BCE0F52990E6BAE0A6
:050C8900F52AE5292415
:0A0C8E002BF88602852AF005F074A9
:030C9800018002D6
:020C9B0025E052
:0C0C9D00D5F0FBFB4AF6753F0190E68A9B
:0B0CA900E4F090E68B7440F0020DBFF9
:0B0CB40090E6A0E0FA4401F0020DBF42
:060CBF007A007B007C00BE
:0C0CC500C3EB9412EC94005014EB242BB1
:080CD100F88605BD0F02800248
:020CD9007A019E
:070CDB000BBB00E60C80E3F7
:0A0CE200EA70398527827412252874
:0A0CEC00F583E53EFAF074012527B8
:0A0CF600F58274123528F583AA3D3B
:0C0D00007B00EAF074022527F5827412D3
:0A0D0C003528F583743AF0E4F53D54
:060D1600F53E430808024F
:020D1C000DBF09
:0B0D1E0090E6A0E0FA4401F0020DBFD7
:080D290090E6BCE0FABA1200EA
:0A0D3100507090E6BAE0FABA040030
:0E0D3B00506690E6BAE0FA75F040A4FAABF00C
:0E0D490090E6BCE0FC8C05E4FC2AFAED3BFBD6
:0C0D5700A86808A60208A6037C007D0026
:0E0D6300C3EC9440ED9400502AEC2440FEEDC9
:0C0D710034E7FFA86808EC26FAED08360D
:0A0D7D00FBEA2527F582EB3528F587
:0E0D870083E0FA8E828F83F00CBC00D00D80CA
:010D9500CD90
:0D0D960090E68AE4F090E68B7440F0801C3B
:0A0DA30090E6A0E0FA4401F080128F
:070DAD00430810E4F53DF5D9
:030DB4003E800876
:080DB70090E6A0E0FA4401F00F
:0C0DBF0090E6A0E0FA4480F0856881D046
:020DCB0068229C
:080DCD00E58020E303020E663D
:020DD5007A00A2
:030DD700BA03005C
:050DDA004003020E665B
:040DDF007B007C0019
:0C0DE300C3EB94DCEC9405504EE523605B
:020DEF000122DF
:020DF1007D0083
:030DF300BD06003A
:0A0DF600503B8DF005F074018002FF
:020E000025E0EB
:0E0E0200D5F0FB2480F5B053B07F75B0D5530A
:0E0E1000B07F000000000000000000000000A5
:0E0E1E0075B0C053B07F00000000000000005F
:070E2C00000000000D80C072
:070E33000BBB00AC0C80A911
:040E3A007B007C00BD
:0E0E3E00C3EB942CEC9401501BC002C003C007
:0C0E4C0004121666D004D003D002E52387
:030E580060012214
:070E5B000BBB00DF0C80DC83
:040E62000A020DD79C
:070E66005380F743870122CE
:0E0E6D00C0E0C0F0C082C083C002C003C00459
:0C0E7B00C005C006C007C000C001C020B8
:0C0E8700C0D075D00053D8EF75230112C5
:0C0E93001012D0D0D020D001D000D00729
:0E0E9F00D006D005D004D003D002D083D0827C
:050EAD00D0F0D0E0329E
:0E0EB200C0E0C0F0C082C083C002C003C00414
:0E0EC000C005C006C007C0D075D0005391EF2A
:0C0ECE0090E65DE0FA30E0094308019076
:050EDA00E65D7401F06B
:0D0EDF0090E65DE0FA30E11C90E684E0F55D
:0A0EEC002190E685E0F522C28C7526
:0D0EF6008A00758C00D28C90E65D7402F0CD
:0E0F030090E65DE0FA30E40690E65D7410F0D2
:0C0F110090E65DE0FA30E30C4308027546
:080F1D00230090E65D7408F06A
:0B0F250090E65FE0FA20E103020FAB52
:070F3000E53FB4010280035C
:030F3700020FA501
:0A0F3A00753F00E52A75F040A4FAA7
:0C0F4400ABF0AC298C057C00EC2AFAED27
:060F50003BFB7C007D006C
:0E0F5600C3EC9440ED94005046EC2AFEED3BB7
:0A0F6400FFEE2527FEEF3528FFEC15
:0E0F6E002440F582ED34E7F583C002C003E0B5
:0E0F7C00FA8E828F83F0EC2440F582ED34E78C
:0A0F8A00F583E0FA7B00EA253DF54F
:050F94003DEB353EF5C8
:060F99003E0CBC00010D3E
:060F9F00D003D00280B176
:060FA50090E65F7402F00B
:0E0FAB00D0D0D007D006D005D004D003D0029D
:090FB900D083D082D0F0D0E032E8
:0E0FC200C0E0C082C083C0025391BF90E651D0
:0C0FD000E0FA30E00E43080490E650E424
:070FDC00F090E6517401F0F2
:0C0FE30090E651E0FA30E21E90F044E588
:090FEF0021F090F045E522F0909C
:0E0FF800F050E58CF090F051E58AF090E65153
:031006007404F07F
:09100900D002D083D082D0E03285
:0116B0000039
:0A16B1000001020203030404050512
:021012007A0062
:03101400BA060019
:0B1017005009EA240EF876C00A80F2AF
:0110220022AB
:0A102300C068858168AA8275F00399
:0E102D00EA84FB75F003A4FCEAC39CFA75F09C
:0E103B0002A4FAACF08AF005F07A017C008085
:0110490006A0
:06104A00EA2AFAEC33FC77
:0C105000D5F0F7EA2AFCEB240EF886032A
:0D105C00EAF4FD5203A603ECF4FD5BF6A9D7
:0C10690068191919E7540C60058603ECA7
:021075004BF638
:0C107700A968191919E7543060058603B8
:03108300EA4BF63F
:03108600D068220D
:0700DB00751B00751C007588
:0500E2001D00751E0069
:07108900751900751A0075CE
:0C1090001B00D2E990E67AE0FA4402F07E
:01109C002231
:08109D00C068858168AA82E5A4
:0810A500196005758200802F1F
:0810AD00A8681818188614E564
:0810B5006824FAF8861508868C
:0510BD001608861775FE
:0610C2001800751903750A
:0C10C8001A0090E678E0FB4480F0EA2A71
:0810D400FA90E679F075820143
:0310DC00D06822B7
:0810DF00C068858168AA82E562
:0810E7001960057582008032DA
:0810EF00A8681818188614E522
:0810F7006824FAF8861508864A
:0510FF001608861775BC
:06110400180075190175C9
:0C110A001A0090E678E0FB4480F0EA2A2E
:0B111600FA90E67974012AF07582015E
:03112100D0682271
:0A112400E519700BE51A7003F5825F
:01112E00229E
:04112F0075820122A2
:04113300758202229D
:08113700C068858168AA82E509
:0A113F001C6012E51CB40102804799
:08114900E51CB402030211C110
:031151000211FD8B
:0B115400E51BB40106758200021200CA
:0C115F00E56824FBF8E6C0E008E6C0E00C
:0E116B0008E6C0E0C00275825112109DAA82F3
:0E117900E58124FCF581EA7005F58202120082
:07118700751B01751C01023C
:02118E0011FD51
:0D119000121124AA82BA0205758200806344
:0C119D00E56824FBF8E6C0E008E6C0E0CE
:0E11A90008E6C0E0E4C0E075825112109DE53A
:0A11B7008124FCF581751C02803CC8
:0D11C100121124AA82BA0205758200803244
:0A11CE00121124E5827009F51CF5EA
:0611D8001B75820180225C
:0C11DE00E56824FBF8E6C0E008E6C0E08D
:0E11EA0008E6C0E0E4C0E075825112109DE5F9
:0511F8008124FCF581DB
:0311FD00758200F8
:03120000D0682291
:08120300C068858168AA82E53C
:0A120B001D6007E51DB4014B80399A
:0A121500E51BB4010575820080425C
:0C121F00E56824FBF8E6C0E008E6C0E04B
:0E122B0008E6C0E0C0027582511210DFAA82F0
:0D123900E58124FCF581EA7004F582801B3C
:08124600751B01751D018010EC
:0A124E00121124E5827009F51DF568
:061258001B7582018003FA
:03125E0075820096
:03126100D0682230
:0B126400AA82AB83ACF0E51E600AE537
:06126F001EB401028038EC
:031275000212E181
:09127800E51BB40104758200229B
:0A128100741FC0E07400C0E0744068
:0E128B00C0E07401C0E07582481210DFAD8231
:0C129900E58124FCF581ED7003F5822254
:0812A500751B01751E01803468
:0E12AD00C002C003C004121124AD82D004D0D0
:0C12BB0003D0028D06BD020475820022E3
:0A12C700751E00751B00BE010280B9
:0112D1000B11
:0B12D2008A828B838CF0E51F121677D8
:0412DD0075820122F3
:0412E10075820022F0
:0E12E500C0E0C0F0C082C083C002C003C004DD
:0C12F300C005C0D075D0005391DFAA19CF
:0E12FF00BA041190E678E0FB30E6030213FD1E
:06130D007519000213FD3A
:0C13130090E678E0FB30E20975190075E7
:05131F001A010213FD9C
:0D13240090E678E0FB20E119BA0302800397
:03133100BA0111ED
:0A133400751A0275190490E678E0BE
:07133E00FB4440F00213FD27
:05134500BA0102800E58
:05134A00BA020280352B
:06134F00BA03030213C6FD
:031355000213FD83
:09135800751902E514B4010890B6
:07136100E678E0FA4420F0F9
:07136800E5182515FAE43534
:0A136F0016FBAC1790E679E0FD8A4A
:0B137900828B838CF01216770213FDAC
:0C138400AA14BA020890E678E0FB4420AE
:01139000F06C
:0A139100EA14F514BA010B751904F3
:08139B0090E678E0FA4440F00E
:0513A300AA15AB16AC19
:0713A80017AD1874012DF5CB
:0C13AF0018ED2AFAE43BFB90E679E0FD23
:0B13BB008A828B838CF012167780373B
:0A13C600E514FA14F514EA700D7531
:0C13D000190490E678E0FA4440F0802117
:0513DC00AA15AB16ACE0
:0713E10017AD1874012DF592
:0C13E80018ED2AFAE43BFB8A828B838C10
:0913F400F0121690FA90E679F06F
:0E13FD00D0D0D005D004D003D002D083D0824F
:05140B00D0F0D0E0323A
:0800E700754000756304E4F5A7
:0300EF0064F56550
:0A141000AA8274C0550EF50E74C0D8
:07141A00550FF50F74F055AA
:0A14210010F510EA30E706740145EB
:03142B000EF50EAD
:0A142E00EA30E6067404450EF50EE0
:0A143800EA30E5067410450EF50ECB
:0A144200EA30E4067401450FF50FCF
:0A144C00EA30E3067404450FF50FC3
:0A145600EA30E2067410450FF50FAE
:0A146000EA30E10674014510F510B2
:0A146A00EA30E00674044510F510A6
:011474002255
:0A147500AA8274CF5510F51074C060
:07147F005511F51174C05571
:0614860012F51274FC5582
:0A148C0013F513EA30E7067410456B
:0314960010F5103E
:0A149900EA30E60674014511F51172
:0A14A300EA30E50674044511F51166
:0A14AD00EA30E40674104511F51151
:0A14B700EA30E30674014512F51255
:0A14C100EA30E20674044512F51249
:0A14CB00EA30E10674104512F51234
:0A14D500EA30E00674014513F51338
:0114DF0022EA
:0714E00074F35513F513E549
:0914E70040700A754001740845CB
:0414F00013F51322BB
:0814F40075400074044513F576
:0214FC001322B9
:0914FE0074F35513F51374044551
:0415070013F51322A3
:09150B0074F35513F5137408453F
:0415140013F5132296
:07151800740C4513F51322CA
:06151F00E56330E5012246
:06152500E58020E3012235
:09152B00E56330E0681214FEAA29
:0A15340064E565C423CAC423541FF4
:0B153E006ACA541FCA6ACAFB8A41AA8D
:0A15490064E565C42354E0CAC4231E
:0C155300CA6ACA54E0CA6AFB74E05AF588
:07155F0042AA6474F05AF582
:0A15660066EAC454F0FA74F05AF576
:03157000677A0295
:03157300BA220099
:0C157600501DEA2441F8EA24FE540F2521
:0A15820067F674012A2441F8EA1408
:09158C00540F2566F60A0A80DE00
:0315950075630279
:0A159800E56330E1387441C0E074EF
:0B15A20000C0E07440C0E0758222121F
:0E15AD001137AA82158115811581EA7001227D
:0515BB00AA64AB650508
:0615C00064E4B5640205BD
:0115C60065BF
:0B15C700BA0008BB0105756304800337
:0315D2007563013D
:0915D500E56330E2127566007551
:0615DE0041007567007575
:0615E4004200121518750B
:0215EA00630894
:0A15EC00E56330E3217441C0E074B0
:0B15F60000C0E07440C0E075820212EB
:0E1601001137AA82158115811581EA70012228
:03160F00756310F0
:0A161200E56330E44E7441C0E0745B
:0B161C0000C0E07440C0E075820212C4
:0E1627001203AA82158115811581EA70012235
:0416350085410B855B
:03163900420C124E
:09163C00150B74022567501475AA
:051645006700AA660524
:09164A0066BA1F05756320800CCF
:0516530075630880072B
:05165800056705677540
:02165D00630820
:04165F0085664185D6
:021663006742DC
:011665002262
:0E3F000012011001FF00FF40CABE01010100C6
:043F0E0001020001AB
:0E3F12000902190001010080F40904000001F9
:0B3F2000FF00FF000705820100030105
:043F2C00040309047D
:063F3000060370006900A9
:0E3F360012036D006900630072006F007000DE
:043F44006F00740096
:023F4800000077
:091666007400F58690FED37C05AA
:08166F00A3E582458370F92216
:06008500E478FFF6D8FD4F
:080063007900E94400601B7AFA
:05006B00009016BB78B7
:030070000075A078
:0A00730000E493F2A308B8000205B0
:08007D00A0D9F4DAF275A0FF2E
:0E16770020F71030F6118883A88220F507F6C0
:05168500A8837583003D
:01168A00223D
:03168B00F280F7F3
:02168E00F02248
:08008B007800E84400600A79E6
:030093000075A055
:0600960000E4F309D8FCB0
:08009C007800E84400600C79D3
:0B00A40000900000E4F0A3D8FCD9FAA3
:0300560075816948
:0A0059001216ACE58260030200F508
:0E16900020F71430F6148883A88220F507E6B0
:06169E00A8837583002201
:0316A400E280F7EA
:0316A700E49322A7
:0216AA00E0223C
:0416AC007582002221
:00000001FF
