:0400000002005B326D
:01000B0032C2
:0100130032BA
:01001B0032B2
:0100230032AA
:03002B00020B03C2
:0300330002125066
:01003B003292
:0300430002129511
:03004B000217C0D9
:030053000213A9EC
:0700B40075080075090075D5
:0600BB000A00750C0F7530
:0700C1000D00750E00E4F5CF
:0400C8000FF51075AB
:0600CC0011007512007521
:0600D20013007514007517
:0600D8001503751600750A
:0200DE00170009
:030129000200567B
:0500560012012C80FEE8
:0A012C00C01FE581F51F2434F581A2
:0A013600E51F242EF8E4F608F6E5B4
:0A0140001F2430F87600E51F24317B
:0E014A00F8760090E600E0FD54E7F00000902B
:0E015800E60174EBF00000C0001213FFD000AF
:0E01660090E670E4F0000075B20800007580AD
:0E01740000000075B5FF000075B000000053DC
:0E0182008EDF75CA1775CBFC75C80443A82024
:0E01900090E6827404F0D2E843D820C000123A
:0E019E00146BD00090E668E0FD4402F0000013
:0D01AC00D2EA000090E65C741BF0000090A9
:0E01B900E65EE0FD4402F00000D2AF0000530D
:0A01C7008EF8A91F097700A91F098F
:0C01D1000977017F00E51F2432F9770058
:0A01DD00E51F2406F9E4F709F7E531
:0A01E7001F2433F9E4F709F7E51FC0
:0C01F100242AF97701E51F242BF977017F
:0A01FD00E51F242CF97700E51F240C
:0C0207002DF97700E51F2408F9C000E580
:080213001F2403F87600D0005F
:0C021B00C000E51F242AF8B6010280058F
:05022700D000020528D3
:0A022C00E51F242BF8B60102800440
:04023600D000804A2A
:0C023A00D000C007C000E51F2403F8E658
:0C02460075F020A4FFAAF0E51F2433F897
:0C02520074802FF6E43A08F6E51F243310
:0C025E00F8088602A702E904FAE51F2454
:0C026A0033F88607A802A607E51F242B26
:0C027600F87600E51F242CF87601D0007B
:02028200D007A3
:0C028400C000E51F242CF8B60102800524
:05029000D00002036133
:0E029500D000C00789027F007B40C007C00078
:0E02A300C001C002C007C0037582021215160A
:0E02B100AA82158115811581D001D000D007D9
:0502BF00BA01028004F9
:0402C400D007801FC0
:0C02C800D007C000E51F242CF87600E5EC
:0A02D4001F242DF87601E51F240613
:0902DE00F8E4F608F6D000807A7D
:0C02E700C000E51F2406F886020886030C
:0B02F300E51F2406F806B6000208060E
:0E02FE00D000C374E89A74039B5058C000E50A
:0A030C001F242AF87600E51F2433B1
:0B031600F8E4F608F6D0007A007B0047
:0E03210074EE2B402DC00774802AFFE43BFDD4
:0A032F00EF252AF582ED352BF5834A
:0803390074E2F00ABA00010BA6
:0C034100C000E51F2433F8A60208A60344
:06034D00D000D00780CEB5
:0C035300C000E51F2433F8A60208A60332
:02035F00D000CC
:0C036100C000E51F242DF8B60102800545
:05036D00D00002021B9C
:0A037200E51F2433F8E6252AFA08F7
:0C037C00E6352BFBD0007D00C007C00060
:0E038800C001C002C003C0057582201215E43A
:0E039600AA82158115811581D001D000D007F3
:0503A400BA0102800314
:0303A9000204BA91
:0A03AC00C000E51F242DF87600E5DF
:0A03B6001F242BF87601E51F240632
:0C03C000F8E4F608F6E51F2403F8B690F8
:0103CC000030
:0C03CD00D000500DC000E51F2403F8060E
:0503D900D00002021B30
:0C03DE00C000E51F242AF8E4F6FAFBE555
:0C03EA001F2433F8E4F608F6D0007D0074
:0203F6007C0089
:0E03F80074EE2C4033C00774802DFEE43CFFF1
:0A040600EE252AF582EF352BF58371
:0E041000E0FE7F002AFAEF3BFB0DBD00010C61
:0C041E00C000E51F2433F8A60508A60462
:06042A00D000D00780C8DD
:0C043000C000E51F2433F8A60508A60450
:0B043C00D0007480252AF58274123570
:0C0447002BF583E0FC8B05B505277481C4
:0A045300252AF5827412352BF5837B
:0C045D00E0FC7B00B502147482252AF537
:0C046900827412352BF583E0FABA3A03D6
:0304750002021B65
:0C047800C000E51F2433F8E4F608F6D0BD
:05048400007A007B007E
:0804890074EE2B500302021B6C
:0C04910074802AFCE43BFDEC252AF58277
:0C049D00ED352BF58374E1F00ABA000184
:0104A9000B47
:0C04AA00C000E51F2433F8A60208A603DA
:0404B600D00080CF23
:0C04BA00C000E51F2406F8860208860337
:0B04C600E51F2406F806B60002080639
:0E04D100D000C374E89A74039B400302021B20
:0A04DF00C000E51F242AF87600E5AE
:0C04E9001F2433F8E4F608F6D0007A0077
:0204F5007B008A
:0804F70074EE2B500302021BFE
:0C04FF0074802AFCE43BFDEC252AF58209
:0C050B00ED352BF58374E2F00ABA000114
:010517000BD8
:0C051800C000E51F2433F8A60208A6036B
:04052400D00080CFB4
:0A052800C000E51F2403F8E4F6F517
:0405320040F541E56A
:0A0536001F242BF87601E51F242D89
:0E054000F87600D000C007C000C001120B67A3
:09054E00D001D000D007751401A2
:070557007401B509028003E5
:03055E000206AAE8
:0A0561007401B51470E513706CE529
:0C056B0012702F8803FC7D40C007C00008
:0E057700C001C003C004C0057401C0E075825D
:0E058500411216CAAB82E58124FCF581D0013B
:0A059300D000D007BB010375120170
:0A059D00E51370357401B51230C08B
:0A05A70007C000C0017415C0E07425
:0C05B10000C0E07440C0E07402C0E075BF
:0E05BD0082181216CAAB82E58124FCF581D0AB
:0B05CB0001D000D007BB010375130135
:0905D6007509007401B51123AB95
:0405DF000FAC100548
:0605E3000FE4B50F020554
:0105E9001001
:0E05EA007D007E00BB6010BCEA0DBD000ABEA5
:0805F8000007E4F50FF510F512
:0106000011E8
:0C060100C000E51F242EF88603088604C4
:0B060D00E51F242EF806B600020806C8
:0C061800D000BBE813BC0310C000E51FBD
:0C062400242EF8E4F608F6D000430A018A
:0C063000E50A30E01D90000D75F040C0A0
:0E063C0007C000C001121647AB82D001D000EB
:08064A00D007BB0103530AFEB7
:0A0652007401B51353C000E51F2426
:0C065C0030F88603E51F2430F806D000BB
:0C066800BB0A0EC000E51F2430F876002D
:05067400D000430A0262
:0C067900E50A30E12C90000E75F040C046
:0E06850007C000C00112173DAB82D001D000AB
:0E069300D007BB0112C007C000C001121B3D02
:0906A100D001D000D007530AFD7E
:0706AA00E5087003020A5984
:0A06B100E50830E01853A87F530855
:0E06BB00FE43A880C007C000C001120C9CD0F6
:0506C90001D000D00784
:0A06CE00E50830E11853A87F530837
:0E06D800FD43A880C007C000C00112118FD0E2
:0506E60001D000D00767
:0A06EB00E50830E21B53A87F530816
:0E06F500FB43A880C007C000C001120BC0D09C
:0807030001D000D00775800849
:08070B00E50820E30302083BAE
:0C071300C000E51F242BF8B60102800591
:05071F00D0000207CA32
:0C072400E51F2403F8E675F020A4FBACF0
:0C073000F0E51F2433F874802BF6E43C45
:0C073C0008F6E51F2433F8088605A70521
:0C074800E904FDE51F2433F88606A8052F
:0C075400A60674802BFBE43CFCE51F248F
:0807600004F8E4F608F6D000ED
:0C076800C000E51F2404F8C3E69420083C
:0C077400E69400D000503DC007C000E536
:0C0780001F2404F8860774022F29FFE5EF
:0C078C001F2404F8E62BFA08E63CFDEA06
:0A079800252AF582ED352BF583E0EC
:0C07A200FAA807A602E51F2404F806B61A
:0407AE000002080637
:0607B200D000D00780B06A
:0A07B800C000E51F242BF87600E5D1
:0807C2001F242DF87601D00080
:0C07CA00C000E51F242DF8B601028004D9
:0407D600D00080616E
:0E07DA00D00089027B007C40C007C000C00137
:0E07E800C002C003C004758222121516AA8238
:0E07F600158115811581D001D000D007BA0100
:0B08040036C000E51F242DF87600E54B
:0A080F001F242BF87601E51F2403D7
:04081900F8B690009D
:0C081D00D000500CC000E51F2403F806BA
:04082900D000800E6D
:0A082D005308F7C000E51F2403F88C
:040837007600D00077
:08083B00E50820E40302095066
:0C084300C000E51F242BF8B60102800461
:04084F00D0008067EE
:0C085300E51F2403F8E675F020A4FAABC2
:0C085F00F0E51F2433F874802AF6E43B17
:0C086B0008F6E51F2433F8088602A702F7
:0C087700E904FAE51F2433F88603A80208
:08088300A603D0007A007B00FF
:0E088B00C3EA9420EB940050148A0474022CEB
:0E08990029C000F876FFD0000ABA00E60B80F6
:0108A700E36D
:0A08A800C000E51F242BF87600E5E0
:0808B2001F242DF87601D0008F
:0C08BA00C000E51F242DF8B601028005E7
:0508C600D00002095002
:0E08CB00D00089027B007C40C007C000C00145
:0E08D900C002C003C004758222121516AA8246
:0E08E700158115811581D001D000D007BA010E
:0B08F5005AC000E51F242DF87600E536
:0A0900001F242BF87601E51F2403E5
:04090A00F8B69000AB
:0C090E00D000500CC000E51F2403F806C8
:04091A00D000803257
:0A091E005308EFC000E51F2403F8A2
:080928007600D0007A007B008C
:0E09300074EE2B401B74802AFCE43BFDEC258A
:0A093E002AF582ED352BF58374FFD6
:08094800F00ABA00E30B80E0A5
:0A095000E50830E73353087FC007C5
:0A095A00C000C0017428C0E0740062
:0E096400C0E07440C0E07402C0E0758218125A
:0E09720016CAAA82E58124FCF581D001D000CE
:08098000D007EA700343088070
:0B098800E50830E65E900000E4F0900F
:060993000001F0751800E0
:0A09990074F82518401474022518A4
:0A09A3002400F582E43400F58374AB
:0609AD00FFF0051880E6D2
:0B09B300C007C000C0017400C0E07469
:0C09BE0000C0E0E4C0E075820A121516CB
:0E09CA00AA82158115811581D001D000D007B9
:0A09D800BA010D7401B51708751778
:0609E200005308BF800372
:0309E8007517017F
:0B09EB00E50830E569900000E4F090A2
:0A09F6000001F090000274C0F090C0
:0C0A000000037439F09000047421F090A1
:0B0A0C0000057401F0900006E4F0907B
:080A17000007F0900008F090C8
:0C0A1F000009F0C007C000C0017400C056
:0C0A2B00E07400C0E0E4C0E075820A1234
:0E0A37001516AA82158115811581D001D000F7
:0A0A4500D007BA010CE51770087520
:070A4F0017015308DF8003CB
:030A560075170011
:0E0A590053A87F8FB043B08053B07FC000E53C
:0C0A67001F2432F886B0D00043B080534A
:0E0A7300B07F00000000000000000000000046
:0A0A8100C000A81F08B6050280049B
:040A8B00D000800F08
:0A0A8F00A81F087600A81F080876CB
:050A990001D0008010F7
:0A0A9E00C000A81F0806A81F0808E2
:060AA800E625E0F6D00097
:0A0AAE00C000A81F08E62419F8860E
:0A0AB80002E51F2432F8A602A81F71
:0E0AC2000808748026FFD00075B0C043B080D5
:0E0AD00053B07F43A88000000000000000002B
:0E0ADE0000000000000000000000000000000A
:0E0AEC000000000000000000000000000000FC
:070AFA00020557851F81D0A2
:020B01001F22B1
:070B030075090153C87F32A0
:0700E0007521007522007577
:0600E700230175240075E1
:0600ED00250075280175D5
:0400F30029FF752A42
:0300F70000752B66
:0500FA0028752C0075C3
:0600FF002D00E4F540F5C0
:0401050041754200FE
:0A0B0A0090E6BAE0F526758201229C
:0C0B140090E740E526F090E68AE4F090BF
:090B2000E68B7401F075820122DC
:0A0B290090E6BAE0F527758201227C
:0C0B330090E740E527F090E68AE4F0909F
:090B3F00E68B7401F075820122BD
:040B4800AA82AB834F
:090B4C008A048B051ABAFF011B93
:0E0B5500EC4D600DC002C003121B79D003D01E
:030B63000280E627
:010B6600226C
:0E0B670090E680E0440AF09005DC120B489006
:0E0B7500E65D74FFF05391EF90E680E054F7D8
:020B8300F0225E
:060B8500AA827B2C7C3FDC
:0E0B8B008B828C83A3E0FDBD03278A051AED43
:070B990070058B828C8322A2
:0E0BA000C0028B058C068B828C83E0FF7A00EE
:0E0BAE00EF2DFDEA3EFE8D038E04D00280CFB7
:040BBC009000002283
:0B0BC0005380F7900032120B487A00BF
:030BCB00BA12005B
:0B0BCE005009EA242EF876000A80F29D
:060BD900E4F52CF52DF5FA
:040BDF0040F541F5A7
:0C0BE3004290E60B7403F0000090E61254
:0E0BEF0074D0F0000090E613E0FA547FF0009E
:0E0BFD000090E614E0FA547FF0000090E61538
:0E0C0B00E0FA547FF0000090E6047480F000E0
:0E0C19000090E6047402F0000090E6047404FB
:0E0C2700F0000090E6047406F0000090E60471
:0D0C35007408F0000090E604E4F000009068
:0E0C4200E618740CF0000090E6207401F0003B
:0E0C50000090E6217480F0000090E63074C041
:0E0C5E00F0000090E63174C0F0000090E6193E
:0E0C6C00E0FA54FEF0000090E61AE0FA54FEA2
:0E0C7A00F0000090E61BE0FA54FEF00000903F
:0E0C88000032120B4890E65174FFF090E650D7
:060C96007405F002146B6E
:0A0C9C00C01F85811F0581058190AE
:0A0CA600E6B9E0FABA0003020DB748
:060CB000BA0103020E5917
:060CB600BA0303020F1354
:050CBC00BA0602805D94
:060CC100BA0803020DB1A8
:060CC700BA0903020DABA7
:060CCD00BA0A03020D9FAC
:060CD300BA0B03020DA59F
:060CD900BAB003020FAFE8
:060CDF00BAB103020FD2BE
:060CE500BAB203020FC5C4
:060CEB00BAB5030210235C
:060CF100BAB60302107701
:060CF700BAB7030210E38E
:060CFD00BAB80302116603
:060D0300BABB03020FE77A
:060D0900BAC003020FED69
:060D0F00BAD103021175C8
:060D1500BAD203021170C6
:030D1B0002117A48
:0A0D1E0090E6BBE0FABA0102800A79
:050D2800BA0202801C6C
:050D2D00BA0364802EF2
:0A0D32007A007B3F90E6B3EBF07A05
:0A0D3C00007B3F7B0090E6B4EAF074
:030D460002118215
:0A0D49007A127B3F90E6B3EBF07ADC
:0A0D5300127B3F7B0090E6B4EAF04B
:030D5D00021182FE
:0E0D600090E6BAE0F582120B85AA82AB837C86
:0D0D6E00008A058B068C07EA4B4C600F9045
:0E0D7B00E6B3EEF07E0090E6B4EDF0021182D9
:0B0D890090E6A0E0FA4401F0021182A5
:0B0D940090E6A0E0FA4401F00211829A
:060D9F00120B3302118269
:060DA500120B290211826D
:060DAB00120B0A02118286
:060DB100120B1402118276
:0A0DB70090E6B8E0FABA8002800D61
:050DC100BA8102802C44
:050DC600BA8202803D2D
:030DCB00020E4EC7
:060DCE00E5252525FA9041
:0D0DD4001BC3E493FB420290E740EAF0905D
:0E0DE100E741E4F090E68AF090E68B7402F0B1
:030DEF000211826C
:0E0DF20090E740E4F090E741F090E68AF09040
:080E0000E68B7402F00211827E
:0E0E080090E6BCE0FA53027E90E6BCE0FB747C
:040E160080B50300A0
:0E0E1A00E4334A901BC493FA3395E0FB74A1B5
:0E0E28002AFA74E63BFB8A828B83E0FA5302BF
:0E0E36000190E740EAF090E741E4F090E68A90
:0A0E4400F090E68B7402F0021182B8
:0B0E4E0090E6A0E0FA4401F0021182DF
:0C0E590090E6B8E0FA6008BA0202801CC3
:030E6500021182F5
:0C0E680090E6BAE0FABA01067525000217
:020E74001182E9
:0B0E760090E6A0E0FA4401F0021182B7
:090E810090E6BAE06003020F08DC
:0E0E8A0090E6BCE0FA53027E90E6BCE0FB74FA
:040E980080B503001E
:0E0E9C00E4334A901BC493FA3395E0FB74A133
:0E0EAA002AFA74E63BFB90E6BCE0FC53047EA3
:0A0EB80090E6BCE0FD7480B5050073
:0E0EC200E4334C901BC493FC3395E0FD74A107
:0E0ED0002CFC74E63DFD8C828D83E0FC530407
:0E0EDE00FE8A828B83ECF090E6BCE05480C468
:0D0EEC0023541FFA90E6BCE0FB740F5B90EE
:0D0EF900E6832AF090E683E0FA4420F00240
:020F0600118256
:0B0F080090E6A0E0FA4401F002118224
:0C0F130090E6B8E0FA6008BA02028027FD
:030F1F00020FA41A
:0C0F220090E6BAE0FABA0106752501025B
:020F2E0011822E
:0B0F300090E6BAE0FABA020302118258
:0B0F3B0090E6A0E0FA4401F0021182F1
:0E0F460090E6BCE0FA53027E90E6BCE0FB743D
:040F540080B5030061
:0E0F5800E4334A901BC493FA3395E0FB74A176
:0E0F66002AFA74E63BFB90E6BCE0FC53047EE6
:0A0F740090E6BCE0FD7480B50500B6
:0E0F7E00E4334C901BC493FC3395E0FD74A14A
:0E0F8C002CFC74E63DFD8C828D83E0FC43045A
:0A0F9A00018A828B83ECF0021182C1
:0B0FA40090E6A0E0FA4401F002118288
:0E0FAF0090E6BAE0FA90E6BCE0FBC0028B824E
:080FBD001214101581021182CB
:0A0FC50090E6BAE0FA8A294308809A
:030FCF000211828A
:0A0FD200120BC0758008751101753F
:060FDC0028017529FF4306
:050FE2000880021182ED
:060FE7005380F7021182A5
:090FED00E4F50FF51090E740E572
:0C0FF6000DF090E741E4F090000CE0FAF0
:0D10020090E742F090E743E4F090E744E50A
:0C100F0017F090E745E4F090E68AF090BE
:08101B00E68B7406F00211825D
:0810230090E6BCE0FABA1200ED
:0A102B00503F90E6BAE0FABA040064
:0C103500503590E6BCE0F52C90E6BAE0E7
:05104100F52DE52C2453
:0A1046002EF88602852DF005F074E7
:031050000180021A
:0210530025E096
:0C105500D5F0FBFB4AF675420190E68ADC
:0B106100E4F090E68B7440F002118276
:0B106C0090E6A0E0FA4401F0021182BF
:061077007A007B007C0002
:0C107D00C3EB9412EC94005014EB242EF2
:08108900F88605BD0F0280028C
:021091007A01E2
:071093000BBB00E60C80E33B
:0C109A00EA703B7480252AF58274123540
:0910A6002BF583E541F07481256E
:0A10AF002AF5827412352BF583AA8E
:0A10B900407B00EAF07482252AF55E
:0C10C300827412352BF583743AF0E4F5CA
:0410CF0040F5414364
:0510D300080802118273
:0B10D80090E6A0E0FA4401F002118253
:0810E30090E6BCE0FABA12002D
:0A10EB00506F90E6BAE0FABA040074
:0E10F500506590E6BAE075F040A4FAABF090BA
:0C110300E6BCE0FDE42AFAED3BFBA81F6F
:0D110F000874802AF6E43B08F67C007D00A1
:0E111C00C3EC9440ED9400502AEC2440FEED0C
:0C112A0034E7FFA81F08EC26FAED083699
:0A113600FBEA252AF582EB352BF5C4
:0E11400083E0FA8E828F83F00CBC00D00D800D
:01114E00CDD3
:0D114F0090E68AE4F090E68B7440F0802674
:0A115C0090E6A0E0FA4401F0801CC8
:07116600430810E4F540F519
:03116D00418012AC
:05117000430840800D62
:05117500430820800882
:08117A0090E6A0E0FA4401F048
:0B11820090E6A0E04480F0851F81D0C3
:02118D001F221F
:08118F00E58020E30302124990
:021197007A00DC
:03119900BA030096
:05119C004003021249AE
:0411A1007B007C0053
:0C11A500C3EB94DCEC9405506FE5236074
:0211B100012219
:0211B3007D00BD
:0311B500BD060074
:0A11B800505C8DF005F07401800218
:0211C20025E026
:0E11C400D5F0FB2480F5B043B08053B07F75AA
:0E11D200B0D543B08053B07F00000000000095
:0E11E000000000000000000000000000000001
:0E11EE000000000075B0C043B08053B07F0019
:0E11FC000000000000000000000000000000E5
:0C120A000000000000000000000D809FAC
:071216000BBB008B0C80886C
:04121D007B007C00D6
:0E122100C3EB942CEC9401501BC002C003C020
:0C122F0004121B79D004D003D002E52388
:03123B006001222D
:07123E000BBB00DF0C80DC9C
:041245000A021199EF
:071249005380F743870122E7
:0C125000C020C0E0C0F0C082C083C0021B
:0E125C00C003C004C005C006C007C000C0012A
:0C126A00C0D075D00053D8EF75230112DE
:0E12760013FFD0D0D001D000D007D006D00595
:0E128400D004D003D002D083D082D0F0D0E0CE
:03129200D0203237
:0E129500C0E0C0F0C082C083C002C003C0042D
:0E12A300C005C006C007C0D075D0005391EF43
:0C12B10090E65DE0FA30E009430801908F
:0512BD00E65D7401F084
:0D12C20090E65DE0FA30E11C90E684E0F576
:0A12CF002190E685E0F522C28C753F
:0D12D9008A00758C00D28C90E65D7402F0E6
:0E12E60090E65DE0FA30E40690E65D7410F0EC
:0C12F40090E65DE0FA30E30C4308027560
:08130000230090E65D7408F083
:0B13080090E65FE0FA20E10302139280
:071313007401B542028003E2
:03131A0002138C2F
:0A131D00754200E52D75F040A4FABA
:0C132700ABF0AD2C7C00EC2AFAED3BFB97
:0B13330074802AFAE43BFB7C007D0084
:0E133E00C3EC9440ED94005045EC2AFEED3BCC
:0A134C00FFEE252AFEEF352BFFEC23
:0E1356002440F582ED34E7F583C002C003E0C9
:0E1364008E828F83F0EC2440F582ED34E7F5A5
:0A13720083E0FA7B00EA2540F54015
:0A137C00EB3541F5410CBC00010DFA
:06138600D003D00280B28A
:06138C0090E65F7402F020
:0E139200D0D0D007D006D005D004D003D002B2
:0913A000D083D082D0F0D0E032FD
:0E13A900C0E0C082C083C0025391BF90E651E5
:0C13B700E0FA30E00E43080490E650E439
:0713C300F090E6517401F007
:0C13CA0090E651E0FA30E22490F080E55B
:0913D60021F090F081E522F09075
:0E13DF00F08CE58CF090F08DE58AF090F074C3
:0913ED00E57AF090E6517404F079
:0913F600D002D083D082D0E03295
:011BC3000021
:0A1BC40000010202030304040505FA
:011BCE000610
:0213FF007A0072
:03140100BA060028
:0B1404005009EA2419F876C00A80F2B3
:01140F0022BA
:0A141000C01F85811FAA8275F0033A
:0E141A00EA84FB75F003A4FCEAC39C25E0FA0B
:081428008AF005F07401800256
:0214300025E0B5
:0C143200D5F0FBFA25E0FCEB2419F8864D
:0D143E0003EAF45203A603ECF4FD5BF6E5AF
:0C144B001F24FDF9E7540C60058603EC3B
:021457004BF652
:0C145900E51F24FDF9E754306005860310
:03146500EA4BF659
:03146800D01F2270
:07010900754A00754B0075FB
:060110004C00754D007566
:050116004F00755000D0
:07146B00754800754900758A
:0C1472004A00D2E990E67AE04402F02241
:08147E00C01F85811FAA82E551
:08148600486005758200802F0B
:08148E00E51F24FDF88643E58B
:081496001F24FAF886440886C1
:05149E004508864675BB
:0614A300470075480375C7
:0C14A900490090E678E0FB4480F0EA2A5D
:0814B500FA90E679F07582015E
:0314BD00D01F221B
:0814C000C01F85811FAA82E50F
:0814C8004860057582008030C8
:0814D000E51F24FDF88643E549
:0814D8001F24FAF8864408867F
:0514E000450886467579
:0614E50047007548017587
:0C14EB00490090E678E0FB4480F0EA2A1B
:0914F700FA90E67904F075820117
:03150000D01F22D7
:0A150300E548700BE5497003F5821E
:01150D0022BB
:04150E0075820122BF
:0415120075820222BA
:09151600C01F85811FAA82E4B503
:04151F004B028012E9
:071523007401B54B02804783
:08152A007402B54B030215A287
:031532000215DEC1
:0B1535007401B54A067582000215E142
:0C154000E51F24FBF8E6C0E008E6C0E070
:0E154C0008E6C0E0C00275825112147EAA8229
:0E155A00E58124FCF581EA7005F5820215E1B9
:07156800754A01754B0102F9
:02156F0015DE87
:0D157100121503AA82BA020575820080637C
:0C157E00E51F24FBF8E6C0E008E6C0E032
:0E158A0008E6C0E0E4C0E075825112147EE570
:0A1598008124FCF581754B02803CB4
:0D15A200121503AA82BA020575820080327C
:0A15AF00121503E5827009F54BF5F3
:0615B9004A758201802248
:0C15BF00E51F24FBF8E6C0E008E6C0E0F1
:0E15CB0008E6C0E0E4C0E075825112147EE52F
:0515D9008124FCF581F6
:0315DE0075820013
:0315E100D01F22F6
:0915E400C01F85811FAA82E4B535
:0415ED004C02800725
:0715F1007401B54C4B803979
:0A15F8007401B54A057582008042B7
:0C160200E51F24FBF8E6C0E008E6C0E0AD
:0E160E0008E6C0E0C0027582511214C0AA8224
:0D161C00E58124FCF581EA7004F582801B55
:08162900754A01754C018010A7
:0A163100121503E5827009F54CF56F
:06163B004A7582018003E4
:03164100758200AF
:03164400D01F2292
:0C164700AA82AB83ACF0E4B54D02800A2F
:071653007401B54D0280385F
:03165A000216C6AF
:09165D007401B54A0475820022F3
:0A166600744EC0E07400C0E0744050
:0E167000C0E07401C0E07582481214C0AD8263
:0C167E00E58124FCF581ED7003F582226B
:08168A00754A01754D01803421
:0E169200C002C003C004121503AD82D004D004
:0C16A00003D0028D06BD020475820022FA
:0A16AC00754D00754A00BE01028072
:0116B6000B28
:0B16B7008A828B838CF0E54E121B8AA8
:0416C200758201220A
:0416C6007582002207
:0916CA00C01F85811FAA82E4B54E
:0416D3004F0280073B
:0716D7007401B54F5B803E7A
:0A16DE007401B54A057582008052C0
:0C16E800E51F24FAF8E6C0E008E6C0E0C8
:0C16F40008E6C0E0E51F24FDF8E6C0E0B9
:0E1700008A8212147EAA82E58124FCF581EA19
:06170E007004F582802644
:08171400754A01754F01801BAD
:0C171C00121503AA82BA0208754F01756D
:041728008200800EAD
:0A172C00754F00754A0075820180B8
:0117360003AF
:03173700758200B8
:03173A00D01F229B
:0C173D00AA82AB83ACF0E4B55002800A35
:071749007401B55002803865
:031750000217BCC1
:091753007401B54A0475820022FC
:0A175C007451C0E07400C0E0744056
:0E176600C0E07401C0E07582411214C0AD8273
:0C177400E58124FCF581ED7003F5822274
:08178000754A01755001803427
:0E178800C002C003C004121503AD82D004D00D
:0C17960003D0028D06BD02047582002203
:0A17A200755000754A00BE01028078
:0117AC000B31
:0B17AD008A828B838CF0E551121B8AAE
:0417B8007582012213
:0417BC007582002210
:0E17C000C0E0C0F0C082C083C002C003C004FD
:0C17CE00C005C0D075D0005391DFAA48C0
:0E17DA00BA041190E678E0FB30E6030218D660
:0617E8007548000218D64E
:0C17EE0090E678E0FB30E20975480075D9
:0517FA0049010218D6B0
:0D17FF0090E678E0FB20E119BA03028003B8
:03180C00BA01110D
:0A180F0075490275480490E678E080
:07181900FB4440F00218D669
:05182000BA0102800E78
:05182500BA020280354B
:06182A00BA03030218A03E
:031830000218D6C5
:091833007548027401B5430890E8
:07183C00E678E0FA4420F019
:07184300E5472544FAE435F6
:0A184A0045FBAC4690E679E0FD8A0C
:0B185400828B838CF0121B8A0218D6D6
:0C185F00AA43BA020890E678E0FB44209F
:01186B00F08C
:0A186C00EA14F543BA010B754804B5
:0818760090E678E0FA4440F02E
:05187E00AA44AB45ACDB
:0618830046E547FD04F5F7
:0C18890047ED2AFAE43BFB90E679E0FD15
:0B1895008A828B838CF0121B8A803645
:0A18A000E543FA14F543EA700D75F4
:0C18AA00480490E678E0FA4440F080200A
:0518B600AA44AB45ACA3
:0618BB0046E547FD04F5BF
:0C18C10047ED2AFAE43BFB8A828B838C03
:0918CD00F0121BA3FA90E679F079
:0E18D600D0D0D005D004D003D002D083D08271
:0518E400D0F0D0E0325D
:08011B00755200757504E4F54E
:0301230076F577F7
:0A18E900AA8274C05519F51974C0E5
:0718F300551AF51A74F055B7
:0A18FA001BF51BEA30E706740145F8
:0319040019F519B9
:0A190700EA30E60674044519F519EC
:0A191100EA30E50674104519F519D7
:0A191B00EA30E4067401451AF51ADB
:0A192500EA30E3067404451AF51ACF
:0A192F00EA30E2067410451AF51ABA
:0A193900EA30E1067401451BF51BBE
:0A194300EA30E0067404451BF51BB2
:01194D002277
:0A194E00AA8274CF551BF51B74C06C
:07195800551CF51C74C0557D
:06195F001DF51D74FC558E
:0A1965001EF51EEA30E70674104577
:03196F001BF51B4A
:0A197200EA30E6067401451CF51C7E
:0A197C00EA30E5067404451CF51C72
:0A198600EA30E4067410451CF51C5D
:0A199000EA30E3067401451DF51D61
:0A199A00EA30E2067404451DF51D55
:0A19A400EA30E1067410451DF51D40
:0A19AE00EA30E0067401451EF51E44
:0119B800220C
:0719B90074F3551EF51EE555
:0919C00052700A755201740845C9
:0419C9001EF51E22C7
:0819CD007552007404451EF57B
:0219D5001E22D0
:0919D70074F3551EF51E7404455D
:0419E0001EF51E22B0
:0919E40074F3551EF51E7408454C
:0419ED001EF51E22A3
:0719F100740C451EF51E22D7
:0619F800E57530E5012257
:0619FE00E58020E3012258
:091A0400E57530E0661219D7AA5D
:0A1A0D0076E577C423CAC423541FF2
:0A1A17006ACA541FCA6ACA8A53AA99
:0A1A210076E577C42354E0CAC4231D
:0C1A2B00CA6ACA54E0CA6AFB74E05AF5AB
:071A370054AA7674F05AF581
:0A1A3E0078EAC454F0FA74F05AF587
:031A4800797A02A6
:031A4B00BA2200BC
:0C1A4E00501CEA2453F8EA24FE540F2533
:0A1A5A0079F6EA042453F8EA145464
:081A64000F2578F60A0A80DF65
:031A6C007575028B
:0A1A6F00E57530E1387453C0E074EF
:0B1A790000C0E07440C0E07582221243
:0E1A84001516AA82158115811581EA700122BE
:051A9200AA76AB770508
:061A970076E4B5760205BD
:011A9D0077D1
:0B1A9E00BA0008BB0105757504800349
:031AA9007575014F
:091AAC00E57530E2127578007551
:061AB50053007579007575
:061ABB0054001219F17540
:021AC1007508A6
:0A1AC300E57530E3217453C0E074B0
:0B1ACD0000C0E07440C0E0758202120F
:0E1AD8001516AA82158115811581EA7001226A
:031AE60075751003
:0A1AE900E57530E44E7453C0E0745C
:0B1AF30000C0E07440C0E075820212E9
:0E1AFE0015E4AA82158115811581EA70012276
:041B0C0085530B856D
:031B1000540C1260
:091B130019E474022579501475DF
:051B1C007900AA780524
:091B210078BA1F05757520800CCF
:051B2A0075750880073D
:051B2F00057905797540
:021B3400750832
:041B360085785385D6
:021B3A007954DC
:011B3C002286
:03012600757B00E6
:081B3D00E57B240AF582E43483
:071B450000F583E50EF00539
:051B4C007B757DFF75B3
:021B51007C0016
:091B530074FE257C4013E57C249E
:0A1B5C000AF582E43400F583E0FA94
:061B6600527D057C80E7C2
:061B6C00857D7A74FE2560
:061B72007B5003757B00AF
:011B7800224A
:0E3F000012011001FF00FF40392101010100F4
:043F0E0001020001AB
:0E3F12000902190001010080F40904000001F9
:0B3F2000FF00FF000705820100030105
:043F2C00040309047D
:0E3F3000140345006900670065006E006C0018
:063F3E0061006200730047
:0E3F440012035000690063006F004800610026
:043F52007200700089
:023F5600000069
:091B79007400F58690FED37C0592
:081B8200A3E582458370F922FE
:06008A00E478FFF6D8FD4A
:080068007901E94400601B7AF4
:0500700001901BCE7899
:030075000C75A067
:0A00780000E493F2A308B8000205AB
:08008200A0D9F4DAF275A0FF29
:0E1B8A0020F71030F6118883A88220F507F6A8
:051B9800A88375830025
:011B9D002225
:031B9E00F280F7DB
:021BA100F02230
:080090007800E84400600A79E1
:030098000075A050
:06009B0000E4F309D8FCAB
:0800A100780CE84400600C79C2
:0B00A90001900000E4F0A3D8FCD9FA9D
:03005B0075817E2E
:0A005E00121BBFE58260030200568A
:0E1BA30020F71430F6148883A88220F507E698
:061BB100A88375830022E9
:031BB700E280F7D2
:031BBA00E493228F
:021BBD00E02224
:041BBF007582002209
:00000001FF
