:040000000200563272
:01000B0032C2
:0100130032BA
:01001B0032B2
:0100230032AA
:03002B000202B41A
:03003300020DA11A
:01003B003292
:03004300020DA803
:03004B000210CBD5
:03005300020E3D5D
:0700AF0075080075090075DA
:0600B6000A00750B007545
:0200BC000D0035
:0300DF000200E23A
:0500E2001200FC80FE8D
:0500E700C200C201C2CD
:0400EC0002C203C287
:0400F00004C205C27F
:0400F40006C207C277
:0400F80008C209220F
:0D00FC007A007B007C00C002C003C004122B
:0E01090000E7D004D003D00290E600E0FD44F1
:0E01170010F0000000000000000090E618E468
:0E012500F0000000000000000090E619E4F079
:0E013300000000000000000090E61AE4F0005A
:0E0141000000000000000090E61BE4F000004B
:0E014F0000000000000090E6017403F00000C4
:0E015D0000000000000090E670E4F0000000DA
:0E016B00000000000075B288000000000000D7
:0E01790000007580000000000000000000750E
:0E018700B5AF000000000000000075B00000E1
:0E01950000000000000000538EDF75CA5F7589
:0E01A300CBF075C80443A82090E6827404F0E7
:0E01B100D2E843D820C002C003C004120E6F73
:0E01BF00D004D003D00290E668E0FD4402F0C8
:0E01CD000000000000000000D2EA0000000068
:0E01DB000000000090E65C7413F000000000CD
:0E01E9000000000090E65EE0FD4402F0000021
:0E01F700000000000000D2AF00000000000079
:0E0205000000538EF8C002C003C0041203288C
:0E021300D004D003D002000000000000000064
:0A022100E509B401437509008C05DE
:06022B000CBD01027C0085
:090231008A058B060ABA00010BD4
:0C023A00BDE80ABE0307430B017A007BFD
:0102460000B7
:0C024700E50B30E01D90000D75F040C08C
:0E02530002C003C00412104AAD82D004D003D2
:08026100D002BD0103530BFEA6
:0A026900E50860B4E50830E0185322
:0C027300A87F5308FE43A880C002C0030F
:0B027F00C004120548D004D003D002D8
:0A028A00E50830E10953A87F53088E
:04029400FD43A880FE
:08029800E50820E20302022147
:0C02A00053A87F5308FB43A88000000017
:0802AC00000000000002022125
:0702B40075090153C87F32F8
:0700BE00750E00750F0075BF
:0600C50010007511017529
:0600CB0012007513007520
:0200D100160017
:0A02BB0090E6BAE0F5147582012206
:0C02C50090E740E514F090E68AE4F09029
:0902D100E68B7401F07582012234
:0A02DA0090E6BAE0F51575820122E6
:0C02E40090E740E515F090E68AE4F09009
:0902F000E68B7401F07582012215
:0C02F90090E50DE0FA30E404758200226C
:0403050075820122DA
:04030900AA82AB8396
:09030D008A048B051ABAFF011BDA
:0E031600EC4D600DC002C0031215D3D003D011
:030324000280E66E
:0103270022B3
:0E03280090E680E0FA440AF09005DC1203092A
:0E03360090E65D74FFF05391EF90E680E0FAE0
:0403440054F7F02258
:06034800AA827B787C3ED6
:0E034E008B828C83A3E0FDBD03278A051AED88
:07035C0070058B828C8322E7
:0E036300C0028B058C068B828C83E0FF7A0033
:0E037100EF2DFDEA3EFE8D038E04D00280CFFC
:04037F0090000022C8
:0E03830090E60B7403F0000000000000000084
:0E03910090E61274D2F00000000000000000A0
:0E039F0090E61374A0F00000000000000000C3
:0E03AD0090E6147492F00000000000000000C2
:0E03BB0090E61574D0F0000000000000000075
:0E03C90090E619E0FA54EFF00000000000008A
:0E03D700000090E61AE0FA54EFF0000000007B
:0E03E5000000000090E6047480F000000000AC
:0E03F3000000000090E6047404F0000000001A
:0E0401000000000090E6047406F00000000009
:0E040F000000000090E6047402F000000000FF
:0E041D000000000090E6047408F000000000EB
:0E042B000000000090E604E4F0000000000075
:0E04390000000090E6187404F00000000000BF
:0E04470000000090E61B7404F00000000000AE
:0E04550000000090E6497484F00000000000F2
:0E04630000000090E6497484F00000000000E4
:0E04710000000090E6497486F00000000000D4
:0E047F0000000090E6497486F00000000000C6
:0E048D0000000090E6197410F000000000005E
:0E049B0000000090E61A7410F000000000004F
:0E04A90000000090E6207402F0000000000049
:0E04B70000000090E621E4F0000000000000CC
:0E04C500000090E6267402F000000000000027
:0E04D300000090E627E4F000000000000000AA
:0204E1000022F7
:0E04E300E4C0E07408C0E07582C012129C15DF
:0E04F1008115810090FC007408F00090FC0161
:0404FF00E4F07A02A9
:03050300BA080033
:0C0506005014008A037CFCEA2430F886C4
:0A051200058B828C83EDF00A80E770
:0E051C000000000000000000000000000000D1
:0E052A00000090E69CE4F000000000000000DD
:0E05380000000000000000000090E69D740826
:02054600F022A1
:0B05480090E6B9E0FABA00030206BE1C
:06055300BA01030207607B
:06055900BA030302081BB7
:05055F00BA06028075E0
:06056400BA08030206B80C
:06056A00BA09030206B20B
:06057000BA0A030206A610
:06057600BA0B030206AC03
:06057C00BAB1030209F50B
:06058200BAB3030208B742
:06058800BABB03020D5C8A
:06058E00BAC003020D15C6
:06059400BAC103020ABA1D
:06059A00BAC203020BF6D9
:0605A000BAC303020D7C4A
:0605A600BAC403020D7C43
:0605AC00BAC503020A318A
:0605B200BAC603020AE8CC
:0605B800BAC703020AAFFE
:0605BE00BAC803020BEBBA
:0605C400BAC903020C4459
:0605CA00BACA03020CA6F0
:0605D000BACB03020CEFA0
:0305D600020D749F
:0A05D90090E6BBE0FABA01028017B9
:0505E300BA0202805085
:0505E800BA0302807956
:0505ED00BA0602801FA8
:0505F200BA0702805869
:0305F70002069B5E
:0A05FA007A007B3E90E6B3EBF07A46
:0A060400007B3E7B0090E6B4EAF0B4
:03060E00020D7C5E
:0806110074F9FA60177A127BFC
:090619003E90E6B3EBF07A127B8F
:0B0622003E7B0090E6B4EAF0020D7C85
:0B062D0090E6A0E0FA4401F0020D7C12
:0A0638007A1C7B3E90E6B3EBF07AEB
:0A0642001C7B3E7B0090E6B4EAF05A
:03064C00020D7C20
:0A064F007A4A7B3E90E6B3EBF07AA6
:0A0659004A7B3E7B0090E6B4EAF015
:03066300020D7C09
:0E06660090E6BAE0FAF582120348AA82AB834E
:0E0674007C008A058B068C07EA4B4C600F90C9
:0E068200E6B3EEF07E0090E6B4EDF0020D7CE3
:0B06900090E6A0E0FA4401F0020D7CAF
:0B069B0090E6A0E0FA4401F0020D7CA4
:0606A6001202E4020D7CCB
:0606AC001202DA020D7CCF
:0606B2001202BB020D7CE8
:0606B8001202C5020D7CD8
:0A06BE0090E6B8E0FABA8002800D61
:0506C800BA8102802C44
:0506CD00BA8202803D2D
:0306D200020755C7
:0606D500E5132513FA9065
:0D06DB00161DE493FB420290E740EAF09008
:0E06E800E741E4F090E68AF090E68B7402F0B1
:0306F600020D7C76
:0E06F90090E740E4F090E741F090E68AF09040
:08070700E68B7402F0020D7C88
:0E070F0090E6BCE0FA53027E90E6BCE0FBC32D
:0E071D0074809BE433FB4A90161E93FA3395CA
:0E072B00E0FB74A12AFA74E63BFB8A828B8302
:0E073900E0FA53020190E740EAF090E741E455
:0E074700F090E68AF090E68B7402F0020D7CD2
:0B07550090E6A0E0FA4401F0020D7CE9
:0C07600090E6B8E0FA6008BA0202801CC3
:03076C00020D7CFF
:0C076F0090E6BAE0FABA01067513000229
:02077B000D7CF3
:0B077D0090E6A0E0FA4401F0020D7CC1
:0907880090E6BAE06003020810DB
:0E07910090E6BCE0FA53027E90E6BCE0FBC3AB
:0E079F0074809BE433FB4A90161E93FA339548
:0E07AD00E0FB74A12AFA74E63BFB90E6BCE088
:0E07BB00FC53047E90E6BCE0FDC374809DE418
:0E07C90033FD4C90161E93FC3395E0FD74A199
:0E07D7002CFC74E63DFD8C828D83E0FC530407
:0E07E500FE8A828B83ECF090E6BCE05480FA32
:0E07F300C423541FFA90E6BCE0FB740F5B9029
:0D080100E6832AF090E683E0FA4420F0023E
:02080E000D7C5F
:0B08100090E6A0E0FA4401F0020D7C2D
:0C081B0090E6B8E0FA6008BA02028027FC
:030827000208AC18
:0C082A0090E6BAE0FABA0106751301026C
:020836000D7C37
:0B08380090E6BAE0FABA0203020D7C61
:0B08430090E6A0E0FA4401F0020D7CFA
:0E084E0090E6BCE0FA53027E90E6BCE0FBC3ED
:0E085C0074809BE433FB4A90161E93FA33958A
:0E086A00E0FB74A12AFA74E63BFB90E6BCE0CA
:0E087800FC53047E90E6BCE0FDC374809DE45A
:0E08860033FD4C90161E93FC3395E0FD74A1DB
:0E0894002CFC74E63DFD8C828D83E0FC430459
:0A08A200018A828B83ECF0020D7CCA
:0B08AC0090E6A0E0FA4401F0020D7C91
:0708B70075170F751804749A
:0A08BE0018C0E07400C0E07440C0F0
:0D08C800E0740FC0E07401C0E07582C01242
:0C08D500123AE58124FBF5817530007AB1
:0108E1000016
:0B08E200E53020E1208A030ABB64001F
:0E08ED005018C002740FC0E07401C0E07582A4
:0C08FB00C012129C15811581D00280DB18
:06090700E4F517F5187479
:0A090D0018C0E07400C0E07440C0A0
:0E091700E0E4C0E07401C0E075824012123AC4
:0A092500E58124FBF58175170F75BD
:07092F0018087418C0E07401
:0C09360000C0E07440C0E0740FC0E0742A
:0E09420001C0E07582C012123AE58124FBF577
:0709500081007530007A0000
:0B095700E53020E0208A030ABB6400AA
:0E0962005018C002740FC0E07401C0E075822E
:0C097000C012129C15811581D00280DBA2
:05097C007530007A0057
:0B098100E53020E1208A030ABB64007F
:0E098C005018C002740FC0E07401C0E0758204
:0C099A00C012129C15811581D00280DB78
:0709A6007517207518197484
:0A09AD0018C0E07400C0E07440C000
:0D09B700E07420C0E07401C0E075824012C1
:0C09C400123AE58124FBF58175170F75D0
:0709D00018087418C0E07460
:0C09D70000C0E07440C0E0740FC0E07489
:0E09E30001C0E07582C012123AE58124FBF5D6
:0409F10081020D7CF6
:0E09F50043B0A0000000000000000000000061
:0E0A030000000000001203830000000000004D
:0E0A11000000000000000000000053B0DF00F5
:0E0A1F000000000000000000000000000000C9
:040A2D0000020D7C3A
:0C0A310090E6BAE0F51790E6BCE0FA8A07
:060A3D00187530007A007C
:0B0A4300E53020E1208A030ABB6400BC
:0E0A4E005018C002740FC0E07401C0E0758241
:0C0A5C00C012129C15811581D00280DBB5
:0A0A68007418C0E07400C0E0744090
:0C0A7200C0E0C0177401C0E075824012A3
:0C0A7E00123AE58124FBF58175170F7515
:070A8A0018087418C0E074A5
:0C0A910000C0E07440C0E0740FC0E074CE
:0E0A9D0001C0E07582C012123AE58124FBF51B
:040AAB0081020D7C3B
:0B0AAF0090E6A0E0FA4401F0020D7C8C
:0C0ABA0090E6BAE0F51790E6BCE0FA8A7E
:060AC600187418C0E07472
:0A0ACC0000C0E07440C0E0C01774E1
:0E0AD60001C0E07582C012123AE58124FBF5E2
:040AE40081020D7C02
:070AE80075170F7518047467
:0A0AEF0018C0E07400C0E07440C0BD
:0D0AF900E0740FC0E07401C0E07582C0120F
:0C0B0600123AE58124FBF5817530007A7D
:010B120000E2
:0B0B1300E53020E1208A030ABB6400EB
:0E0B1E005018C002740FC0E07401C0E0758270
:0C0B2C00C012129C15811581D00280DBE4
:060B3800E4F517F5187446
:0A0B3E0018C0E07400C0E07440C06D
:0E0B4800E0E4C0E07401C0E075824012123A91
:0A0B5600E58124FBF58175170F758A
:070B600018087418C0E074CE
:0C0B670000C0E07440C0E0740FC0E074F7
:0E0B730001C0E07582C012123AE58124FBF544
:060B8100817530007A00CE
:0B0B8700E53020E0208A030ABB640078
:0E0B92005018C002740FC0E07401C0E07582FC
:0C0BA000C012129C15811581D00280DB70
:0E0BAC00E4C0E07440C0E075824012129C1557
:050BBA008115817A00A5
:030BBF00BA400039
:0D0BC200501800EA2440FBE434E7FCEA246C
:0C0BCF0030F886058B828C83EDF00A80E4
:010BDB00E336
:0D0BDC000090E68AE4F090E68B7440F00291
:020BE9000D7C81
:0B0BEB0090E6A0E0FA4401F0020D7C4F
:0E0BF600E4C0E07420C0E07582C012129C15AD
:050C04008115817A005A
:030C0900BA20000E
:0D0C0C00502700EA2440FBE434E7FCEA2412
:0C0C190030F886058B828C83EDF00074AF
:0E0C2500202A2440F582E434E7F583E4F00A47
:020C330080D46B
:0D0C35000090E68AE4F090E68B7440F00237
:020C42000D7C27
:0B0C440090E6BBE0F51990E6BAE0F581
:080C4F001A90E6BCE0F51B530E
:0C0C57001B0790E68AE4F090E68B7440E6
:0E0C6300F090E601E4F0000000000000000048
:0E0C710075B2590000000000000000758009F7
:0C0C7F0000000000000000007A007B0074
:070C8B00E512700EBB6400CE
:0B0C920050098A040ABCFFF10B80EE41
:070C9D007512001213EF02B3
:020CA4000D7CC5
:0B0CA60090E6BBE0F51990E6BAE0F51F
:080CB1001A90E6BCE0F51B53AC
:0C0CB9001B0790E601E4F00000000000C2
:0E0CC50000000075B2590000000000000000A1
:0E0CD30075800900000000000000001214EB04
:0E0CE10090E68AE4F090E68B7440F0020D7C01
:0E0CEF0090E6017403F0000000000000000019
:0E0CFD0075B288000000000000000075800045
:0A0D0B0000000000000000008067F7
:0C0D150090E740E50DF00090E74174020B
:0D0D2100F000900002E0FA90E742F0009030
:0E0D2E000001E0FA90E743F00090E744E4F0A3
:0E0D3C000090E745E4F00090E746E4F00090F8
:0E0D4A00E747E4F00090E68AE4F090E68B7450
:040D580008F08020FF
:0C0D5C0075160053B07F0000000000007E
:0C0D6800000000000000000000008008F7
:080D740090E6A0E0FA4401F052
:090D7C0090E6A0E0FA4480F022A8
:050D8500E511600122F0
:0E0D8A005380F7000000000000000000000091
:090D980000000000004387012265
:070DA10053D8EF7511013278
:0E0DA800C0E0C082C083C0025391EF90E65DB0
:0A0DB600E0FA30E00C43080175126A
:070DC0000090E65D7401F0F4
:0D0DC70090E65DE0FA30E13290E684E0F560
:0A0DD4000E90E685E0F50FC28C7565
:0E0DDE008A00758C00D28C43808000000000DB
:0E0DEC000000000053807F00000000000000A7
:070DFA000090E65D7402F0B9
:0E0E010090E65DE0FA30E40690E65D7410F0D5
:0C0E0F0090E65DE0FA30E30C4308027549
:080E1B00110090E65D7408F07F
:0C0E230090E65FE0FA30E10975120190E2
:050E2F00E65F7402F013
:090E3400D002D083D082D0E0325C
:0E0E3D00C0E0C082C083C0025391BF90E65156
:0C0E4B00E0FA30E01643080490E650E4A2
:0E0E5700F0000000000000000090E651740161
:010E6500F09C
:090E6600D002D083D082D0E0322A
:01161D0000CC
:0A161E0000010202030304040505A5
:0116300001B8
:0116310001B7
:0700D300752900752A007574
:0500DA002B00752C0055
:070E6F0075270075280075CE
:0C0E76002900D2E990E67AE0FA4402F08C
:010E8200224D
:080E8300C01C85811CAA82E558
:080E8B00276005758200802F2D
:080E9300A81C1818188622E5BE
:080E9B001C24FAF886230886E6
:050EA3002408862575FE
:060EA8002600752703750A
:0C0EAE00280090E678E0FB4480F0EA2A7F
:080EBA00FA90E679F07582015F
:030EC200D01C221F
:080EC500C01C85811CAA82E516
:080ECD002760057582008032E8
:080ED500A81C1818188622E57C
:080EDD001C24FAF886230886A4
:050EE5002408862575BC
:060EEA00260075270175CA
:0C0EF000280090E678E0FB4480F0EA2A3D
:0B0EFC00FA90E67974012AF07582017B
:030F0700D01C22D9
:0A0F0A00E527700BE5287003F5825F
:010F140022BA
:040F150075820122BE
:040F190075820222B9
:080F1D00C01C85811CAA82E5BD
:0A0F25002A6012E52AB40102804799
:080F2F00E52AB40203020FA73A
:030F3700020FE3C3
:0B0F3A00E529B40106758200020FE6F5
:0C0F4500E51C24FBF8E6C0E008E6C0E074
:0E0F510008E6C0E0C002758251120E83AA822B
:0E0F5F00E58124FCF581EA7005F582020FE6BB
:070F6D00752901752A01023C
:020F74000FE389
:0D0F7600120F0AAA82BA020575820080637C
:0C0F8300E51C24FBF8E6C0E008E6C0E036
:0E0F8F0008E6C0E0E4C0E0758251120E83E572
:0A0F9D008124FCF581752A02803CD6
:0D0FA700120F0AAA82BA020575820080327C
:0A0FB400120F0AE5827009F52AF514
:060FBE002975820180226A
:0C0FC400E51C24FBF8E6C0E008E6C0E0F5
:0E0FD00008E6C0E0E4C0E0758251120E83E531
:050FDE008124FCF581F7
:030FE30075820014
:030FE600D01C22FA
:080FE900C01C85811CAA82E5F1
:0A0FF1002B6007E52BB4014B80399B
:0A0FFB00E529B4010575820080426B
:0C100500E51C24FBF8E6C0E008E6C0E0B3
:0E10110008E6C0E0C002758251120EC5AA8228
:0D101F00E58124FCF581EA7004F582801B58
:08102C00752901752B018010EC
:0A103400120F0AE5827009F52BF592
:06103E0029758201800308
:03104400758200B2
:03104700D01C2298
:0B104A00AA82AB83ACF0E52C600AE545
:061055002CB401028038FA
:03105B000210C7B9
:09105E00E529B4010475820022A9
:0A106700742DC0E07400C0E0744076
:0E107100C0E07401C0E0758248120EC5AD8269
:0C107F00E58124FCF581ED7003F5822270
:08108B00752901752C01803468
:0E109300C002C003C004120F0AAD82D004D008
:0C10A10003D0028D06BD020475820022FF
:0A10AD00752C00752900BE010280B9
:0110B7000B2D
:0B10B8008A828B838CF0E52D1215E47A
:0410C300758201220F
:0410C700758200220C
:0E10CB00C0E0C0F0C082C083C002C003C004F9
:0C10D900C005C0D075D0005391DFAA27DD
:0E10E500BA041190E678E0FB30E6030211E356
:0610F3007527000211E365
:0C10F90090E678E0FB30E20975270075F6
:0511050028010211E3C6
:0D110A0090E678E0FB20E119BA03028003B3
:03111700BA011109
:0A111A0075280275270490E678E0BE
:07112400FB4440F00211E35F
:05112B00BA0102800E74
:05113000BA0202803547
:06113500BA03030211AC35
:03113B000211E3BB
:09113E00752702E522B4010890B6
:07114700E678E0FA4420F015
:07114E00E5262523FAE43534
:0A11550024FBAC2590E679E0FD8A4A
:0B115F00828B838CF01215E40211E378
:0C116A00AA22BA020890E678E0FB4420BC
:01117600F088
:0A117700EA14F522BA010B752704F3
:0811810090E678E0FA4440F02A
:05118900AA23AB24AC19
:07118E0025AD2674012DF5CB
:0C11950026ED2AFAE43BFB90E679E0FD31
:0B11A1008A828B838CF01215E48037EB
:0A11AC00E522FA14F522EA700D7531
:0C11B600270490E678E0FA4440F0802125
:0511C200AA23AB24ACE0
:0711C70025AD2674012DF592
:0C11CE0026ED2AFAE43BFB8A828B838C1E
:0911DA00F01215FDFA90E679F01F
:0E11E300D0D0D005D004D003D002D083D0826B
:0511F100D0F0D0E03257
:0411F600AA827B004E
:0311FA00BB08002F
:0E11FD00501AEB90162893FC5A600543B00878
:02120B0080035E
:03120D0053B0F7E4
:0912100043B00153B0FE0B80E174
:0112190022B2
:04121A007A007B00DB
:03121E00BB08000A
:0E122100501243B001EA2AFAE5B030E4010AA7
:06122F0053B0FE0B80E944
:05123500008A2F0022D9
:08123A00C01C85811CAA82A8DA
:0A1242001C181818748046FBE51C08
:0E124C0024FCF8E6420243B002008B82C0028E
:0C125A001211F6D0028A821211F67A00FE
:0B126600A81C181818C3EA965025E5D4
:0C1271001C24F9F8EA26FBE40836FC080F
:0E127D0086058B828C838DF01215FDFBF582A9
:0A128B00C0021211F6D0020A80D151
:0712950053B0FD00D01C2244
:08129C00C01C85811CAA82A878
:0A12A4001C18181886038B04E51CC3
:0E12AE0024FCF8E6420243B002008C82C0022B
:0E12BC00C0031211F6D003D0028A82C00312C2
:0E12CA0011F6D00353B0FD000043B004004302
:0A12D800B0010053B0FE00007A00E0
:0E12E200C3EA9B5014C002C00312121AD003BC
:0A12F000D002EA2430F8A62F0A808D
:0112FA00E70C
:0712FB0053B0FB00D01C22E0
:0C130200009000007401F07400C0E07462
:0C130E0000C0E0E4C0E0E4C0E07401C0F6
:0E131A00E07582C012123AE58124FBF58100D5
:0113280022A2
:0B13290000900000E4F07400C0E074CD
:0C13340000C0E0E4C0E0E4C0E07401C0D0
:0E134000E07582C012123AE58124FBF58100AF
:01134E00227C
:0C134F00009000007408F07400C0E0740E
:0C135B0000C0E0E4C0E07401C0E07401D8
:0E136700C0E07582C012123AE58124FBF581C8
:02137500002254
:0C137700009000007480F07400C0E0746E
:0C13830000C0E0E4C0E07401C0E07401B0
:0E138F00C0E07582C012123AE58124FBF581A0
:02139D0000222C
:0C139F00009000007404F07400C0E074C2
:0C13AB0000C0E0E4C0E07401C0E0740188
:0E13B700C0E07582C012123AE58124FBF58178
:0213C500002204
:0C13C700009000007440F07400C0E0745E
:0C13D30000C0E0E4C0E07401C0E0740160
:0E13DF00C0E07582C012123AE58124FBF58150
:0213ED000022DC
:081628008040201008040201BB
:0E13EF005380EF00000000000000005380FE5D
:0E13FD000000000000000000758284121570D0
:0C140B00758200121570E51B0303543FAE
:0C141700F582121570E51B030354C0F5AC
:0C14230082121570E51BB404047A0880E6
:01142F0002BA
:021430007A4000
:021432007B003D
:0E143400C3EB9A501CEB2440F582E434E7F53C
:0E14420083E0FCF582C002C003121570D003D7
:05145000D0020B80DF5B
:0C1455004380010000000000000000E5E2
:061461001BB4040280012F
:011467002262
:0E1468005380FE00000000000000007582832B
:06147600121570E51925B6
:0A147C0019FAE51A235401FB4AF5A2
:0714860082121570E51A2522
:0A148D001AF5821215707582001224
:0E1497001570000000000000000043800100FE
:0E14A500000000000000005380FE0000000068
:0E14B300000000007582D71215707A007B00D1
:0E14C100C002C0031215A2E582D003D00220A3
:0514CF00E70EBB640004
:0B14D40050098A040ABCFFE50B80E20F
:0C14DF004380010000000000000000221B
:0E14EB005380EF00000000000000005380FE60
:0E14F900000000000000000075820B1215704C
:06150700E5192519FAE5C3
:0C150D001A235401FB4AF582121570E508
:051519001A251AFAE595
:0C151E001B0303543FFB4AF582121570BA
:0C152A00E51B030354C0F5821215707518
:0715360082001215707A001B
:03153D00BA4000B1
:0E1540005022EA2440FBE434E7FCC002C00362
:0E154E00C0041215A2AD82D004D003D0028BCF
:08155C00828C83EDF00A80D9B6
:0C15640043800100000000000000002295
:04157000AA827B00D0
:03157400BB0800B1
:0B1577005028EA30E705438040800365
:031582005380BFD4
:0E158500EA2AFA438010000000000000000077
:0E1593005380EF00000000000000000B80D32A
:0115A1002227
:0415A2007A007B0050
:0315A600BB08007F
:0E15A9005025EA2AFAE580FC30E503430201F2
:0E15B70043801000000000000000005380EF91
:0B15C50000000000000000000B80D6BA
:0315D0008A8222EA
:0E3E0000120100020000004039210301010000
:043E0E0001020001AC
:0A3E12000A06000200000040010053
:0E3E1C0009022E00010100803209040000049A
:0E3E2A00FF00000007058201000201070504E9
:0E3E38000200020107050601000201070588CD
:043E46000100020174
:0E3E4A0009022E00010100803209040000046C
:0E3E5800FF00000007058201000201070504BB
:0E3E660002000201070506010002010705889F
:043E74000200020145
:043E78000403090432
:0E3E7C00140365006900670065006E006C00AD
:063E8A00610062007300FC
:0E3E90000E035000530055002D004D004D0054
:023E9E00000022
:0915D3007400F58690FED37C053E
:0815DC00A3E582458370F922AA
:06008500E478FFF6D8FD4F
:080063007902E94400601B7AF8
:05006B00019016307841
:030070000175A077
:0A00730000E493F2A308B8000205B0
:08007D00A0D9F4DAF275A0FF2E
:0E15E40020F71030F6118883A88220F507F654
:0515F200A883758300D1
:0115F70022D1
:0315F800F280F787
:0215FB00F022DC
:08008B007800E84400600A79E6
:030093000075A055
:0600960000E4F309D8FCB0
:08009C007801E84400600C79D2
:0B00A40001900000E4F0A3D8FCD9FAA2
:0300560075816F42
:0A005900121619E58260030200E2AE
:0E15FD0020F71430F6148883A88220F507E644
:06160B00A8837583002294
:03161100E280F77D
:03161400E493223A
:02161700E022CF
:0416190075820022B4
:00000001FF
